:020000040800F2
:100000004008002001010008BB080008B3080008F0
:10001000B7080008BD010008B50F00080000000087
:10002000000000000000000000000000450A000879
:10003000C1010008000000002D090008310B000874
:100040001B0100081B0100081B0100081B01000820
:100050001B0100081B0100081B0100081B01000810
:100060001B0100081B0100081B0100081B01000800
:100070001B0100081B0100081B0100081B010008F0
:100080001B0100081B0100081B0100081B010008E0
:100090001B0100081B0100081B0100081B010008D0
:1000A0001B0100081B0100081B0100081B010008C0
:1000B0001B0100081B0100081B0100081B010008B0
:1000C0001B0100081B0100081B0100081B010008A0
:1000D0001B0100081B010008A10B0008550C0008BB
:1000E0001B0100081B0100081B010008DFF80CD0F1
:1000F00000F052F8004800470B13000840080020A9
:100100000648804706480047FEE7FEE7FEE7FEE7B1
:10011000FEE7FEE7FEE7FEE7FEE7FEE7410B00082D
:10012000ED000008D2B201E000F8012B491EFBD21D
:1001300070470022F6E710B513460A4604461946F2
:10014000FFF7F0FF204610BD30B505462A460B46A6
:1001500012F8010B13F8014B08B1A042F8D01CB102
:10016000002802D06D1CF1E7284630BD30B50B46A3
:10017000014600202022012409E021FA02F59D42D7
:1001800005D303FA02F5491B04FA02F52844151EAB
:10019000A2F10102F1DC30BD064C074D06E0E0683B
:1001A00040F0010394E8070098471034AC42F6D3BE
:1001B000FFF7A0FF741400089414000800BFFEE7C6
:1001C0007047000010B500244FF47A7001F02CF84D
:1001D0000DE04FF4FA73002207A108A000F054FAD2
:1001E00018B109A000F0E8FE10BD601CC4B20A2CD2
:1001F000EFDB00BFF8E700004F4B000041542B52EB
:100200004553544F524500004F4B0D0A000000006B
:1002100010B586B004460CB1012000E00020024673
:1002200006A101A800F0D8FE4FF4FA73002207A13E
:1002300001A800F029FA06B010BD000041542B437C
:1002400049504D55583D2564000000004F4B0000BB
:1002500010B54FF47A7000F0E7FF04A1044800F0F5
:1002600026FE4FF4FA7000F0DFFF10BD2B2B2B00A1
:100270000044004010B54FF4FA7300220DA10EA007
:1002800000F002FAA0B110A11248FFF75DFF08B11B
:10029000022010BD10A10F48FFF756FF08B1032040
:1002A000F7E710A10B48FFF74FFF08B10420F0E774
:1002B0000020EEE74F4B000041542B43495053546C
:1002C00041545553000000005354415455533A32A1
:1002D0000D0A0000380000205354415455533A335E
:1002E0000D0A00005354415455533A340D0A00008E
:1002F00038B504460121042000F02AFB1020ADF897
:1003000000008DF8030003208DF8020069460848BC
:1003100000F040FA2020ADF800006946044800F0E3
:1003200039FA204601F000F800F0C0F838BD0000AE
:100330000008014030B59FB004460D462B462246CA
:1003400006A101A800F048FE41F28833002208A16E
:1003500001A800F099F91FB030BD000041542B43B3
:10036000574A41503D222573222C2225732200003A
:100370004F4B0000F0B5B9B006460F4614461D4677
:10038000642120A8FFF7D5FE16B1012E10D107E099
:100390003B4614A214A120A8009400F01DFE08E022
:1003A0003B4615A210A120A8009400F015FE00E025
:1003B00000BF00BF052D06DA20AB2A460FA102A818
:1003C00000F00AFE04E020AA11A102A800F004FE39
:1003D0004FF47A6312A216A102A800F055F939B0C1
:1003E000F0BD000054435000222573222C222573B7
:1003F000222C2573000000005544500041542B432B
:10040000495053544152543D25642C25730000003B
:1004100041542B43495053544152543D25730000DD
:10042000414C5245415920434F4E4E4543540000E4
:100430004F4B000010B5044624B1012C0AD0022C09
:1004400018D10FE040F6C4130BA20EA10EA000F0CD
:100450001BF910BD40F6C41307A20AA10DA000F0BD
:1004600013F9F6E740F6C41303A206A10CA000F0AE
:100470000BF9EEE70020ECE76E6F206368616E67B2
:10048000650000004F4B000041542B43574D4F4433
:10049000453D310041542B43574D4F44453D3200BB
:1004A00041542B43574D4F44453D330010B5102167
:1004B000054800F0FAF94FF4FA7000F0B5FE10218B
:1004C000014800F0F4F910BD000801409AB0642121
:1004D00001A8FFF72EFEFFF775FE29A000F06CFDC6
:1004E0000020FFF7A7FF00BF2AA12DA0FFF722FFE2
:1004F0000028F9D00020FFF78BFE00BF05232AA2B9
:100500002BA10020FFF736FF0028F7D000BF00F036
:100510001BF90028FBD029A000F04EFD2FE02AA1F6
:1005200001A800F059FD0523002201A9012000F0D7
:100530005BF84FF47A7000F077FE2A480078F0B14B
:10054000FFF786FE00BFFFF795FE0446002CFAD0A9
:10055000042C0FD100BF0FA111A0FFF7EBFE002864
:10056000F9D000BF052310A211A10020FFF702FF60
:100570000028F7D000BF00F0E7F80028FBD0CEE756
:10058000D5FDD4DAC5E4D6C3455350383236360DDE
:100590000A000000313233343536373800000000AD
:1005A0006950686F6E650000383030300000000020
:1005B0003137322E32302E31302E33000D0AC5E461
:1005C000D6C3CDEAB3C90000C9EEDBDACAD0B0B2F7
:1005D000D0C5BFC9BFC6BCBCD3D0CFDEB9ABCBBEC4
:1005E00000000000340000202DE9F04186B00746ED
:1005F0000C4615461E464FF000083FB1224614A196
:10060000144800F054FC4FF001081CE0052E06DAF7
:10061000AB1C324610A101A800F0DEFC04E0AA1CCD
:1006200012A101A800F0D8FC4FF47A73002213A1A4
:1006300001A800F029F84FF47A73002210A1204697
:1006400000F022F88046404606B0BDE8F081000088
:10065000257300000044004041542B43495053454A
:100660004E443D25642C25640000000041542B437A
:10067000495053454E443D25640000003E20000093
:1006800053454E44204F4B002DE9F04106460C46A1
:1006900015461F462748B0F800046FF30E002549A1
:1006A000A1F80004324624A1254800F000FC1CB942
:1006B00015B90120BDE8F081B8B200F0B5FD4FF4E6
:1006C0007A7000F0B1FD00201A49B1F80014C1F3AE
:1006D0000E01184A505411461AA000F06DFCB4B136
:1006E000ADB121461348FFF72FFD08B1012000E00E
:1006F000002040B929460F48FFF726FD08B1012028
:1007000000E0002008B10120D4E70020D2E744B186
:1007100021460848FFF718FD08B10120CAE700206C
:10072000C8E729460348FFF70FFD08B10120C1E7DC
:100730000020BFE73800002025730D0A00000000EC
:10074000004400402573000010B54FF4FA730022F6
:1007500007A108A0FFF798FF08B9002010BD4FF4CB
:10076000FA7308A202A108A0FFF78EFFF6E70000C7
:100770004F4B000041542B4349504D4F44453D31B0
:10078000000000003E00000041542B4349505345F7
:100790004E4400002DE9F0410246002500260020CD
:1007A00000230024002791F803C00CF00F0591F8F6
:1007B00003C00CF0100CBCF1000F03D091F802C084
:1007C0004CEA050591F800C0BCF1000F31D0146867
:1007D00000202BE04FF0010C0CFA00F3B1F800C040
:1007E0000CEA03069E4220D183004FF00F0C0CFA56
:1007F00003F7BC4305FA03FC4CEA040491F803C078
:10080000BCF1280F06D14FF0010C0CFA00FCC2F825
:1008100014C00AE091F803C0BCF1480F05D14FF0B5
:10082000010C0CFA00FCC2F810C0401C0828D1D3FF
:100830001460B1F800C0BCF1FF0F34DD5468002033
:100840002EE000F1080C4FF0010808FA0CF3B1F8A3
:1008500000C00CEA03069E4221D183004FF00F0C2A
:100860000CFA03F7BC4305FA03FC4CEA040491F8C4
:1008700003C0BCF1280F05D100F1080C08FA0CF8F0
:10088000C2F8148091F803C0BCF1480F07D100F101
:10089000080C4FF0010808FA0CF8C2F81080401C50
:1008A0000828CED35460BDE8F081416170470161F2
:1008B000704700BFFEE700BFFEE7704770B500213C
:1008C00000230F22C47804B3154C246804F4E064B8
:1008D000C4F5E064210AC1F10403CA40447804FA73
:1008E00003F184781440214309010E4C0678A15588
:1008F000047804F01F050124AC4005786D11AD00AB
:1009000005F1E025C5F8004109E0047804F01F0571
:100910000124AC40044D0678761145F8264070BDA0
:100920000CED00E000E400E080E100E07047000032
:1009300029B1064AD2690243044BDA6104E0034A52
:10094000D2698243014BDA61704700000010024017
:1009500029B1064A92690243044B9A6104E0034AB2
:1009600092698243014B9A61704700000010024077
:1009700030B500210022002400232D4D6D6805F0C4
:100980000C0121B1042905D0082923D105E0294D06
:10099000056022E0274D05601FE0254D6D6805F4D8
:1009A0007012234D6D6805F48034022505EB9242E8
:1009B0001CB9214D554305600BE01D4D6D6805F4D4
:1009C00000351DB11C4D5543056002E0194D5543DE
:1009D000056002E0174D056000BF00BF144D6D6853
:1009E00005F0F0010909154D6B5C0568DD404560B7
:1009F0000F4D6D6805F4E061090A104D6B5C4568A8
:100A0000DD4085600A4D6D6805F46051C90A0B4DE3
:100A10006B5C4568DD40C560054D6D6805F440417F
:100A2000890B074D6B5CC568B5FBF3F5056130BDFF
:100A30000010024000127A0000093D00180000205A
:100A400028000020704710B500F002F810BD00002B
:100A50000CB50020019000903348006840F48030CD
:100A60003149086000BF3048006800F40030009051
:100A70000198401C0190009818B90198B0F5A06F3A
:100A8000F1D12948006800F4003010B10120009035
:100A900001E0002000900098012843D1234800681D
:100AA00040F01000214908600846006820F003006B
:100AB00008600846006840F0020008601A48406874
:100AC000194948600846406848600846406840F454
:100AD000806048600846406820F47C104860084602
:100AE000406840F4E81048600846006840F08070B4
:100AF000086000BF0C48006800F000700028F9D0C2
:100B00000948406820F003000749486008464068EB
:100B100040F00200486000BF0348406800F00C004D
:100B20000828F9D10CBD000000100240002002404E
:100B300002480068401C014908607047000000201E
:100B400010B51348006840F00100114908600846DC
:100B50004068104908400E494860084600680E4940
:100B600008400B4908600846006820F480200860AF
:100B70000846406820F4FE0048604FF41F0088607B
:100B8000FFF761FF4FF000600449086010BD0000EE
:100B9000001002400000FFF8FFFFF6FE08ED00E045
:100BA00010B540F22551244800F0BDF8F8B12248B4
:100BB00000F074F9C4B22146204800F074F92048CE
:100BC000B0F80004C0F30E0040F2FF3188420EDAA4
:100BD0001B49B1F80014C1F30E00411C184AB2F8C9
:100BE000002461F30E021649A1F800240C5440F2CF
:100BF0002441114800F097F801281BD11048B0F8A3
:100C0000000420F4004000F500400D49A1F8000464
:100C1000094800F043F9C4B22146084800F043F9FE
:100C200008A10748FFF790FA08B1012000E0002072
:100C30000749087010BD0000004400400048004013
:100C400038000020434C4F5345440D0A000000007B
:100C50003400002010B540F22551204800F063F820
:100C6000D8B11E4800F01AF9C4B21D48B0F800040B
:100C7000C0F30E0040F2FF3188420EDA1849B1F895
:100C80000014C1F30E00411C154AB2F8002461F3B0
:100C90000E021349A1F800240C5440F224410F48DD
:100CA00000F041F8012817D10D48B0F8000420F4F5
:100CB000004000F500400A49A1F80004074800F090
:100CC000EDF8C4B207A10648FFF73EFA08B10120CB
:100CD00000E000200649087010BD000000480040F8
:100CE00038000020434C4F5345440D0A00000000DB
:100CF0003400002021B1828942F40052828104E054
:100D000082894DF6FF731A408281704702460020A7
:100D1000B1F5007F00D100BF13880B400BB101205B
:100D200000E00020704770B5024600240023002533
:100D3000002040F66A16B14200D100BFC1F342154F
:100D400001F01F03012606FA03F3012D02D1968953
:100D5000334006E0022D02D1168A334001E0968A24
:100D600033400C12012606FA04F41688344013B1FD
:100D70000CB1012000E0002070BDF0B50346002456
:100D800000260025002040F66A17B94200D100BFB6
:100D90001846C1F3421401F01F06012707FA06F5B1
:100DA000012C01D10C3004E0022C01D1103000E004
:100DB00014301AB107682F43076002E00768AF4399
:100DC0000760F0BD2DE9F04786B005460E460024C9
:100DD000A24600BFA1460027B08900B100BF2F4640
:100DE0002C8A4CF6FF700440F08804432C82AC89B6
:100DF0004EF6F3100440B0883189084371890843E6
:100E00000443AC81AC8A4FF6FF400440B0890443F0
:100E1000AC8201A8FFF7ACFD1F48874202D1DDF884
:100E200010A001E0DDF80CA0A88900F4004040B15A
:100E30000AEBCA0000EB0A1031684900B0FBF1F878
:100E400007E00AEBCA0000EB0A1031688900B0FB2A
:100E5000F1F86420B8FBF0F004012009642101FBE3
:100E60001089A88900F4004040B1322000EBC9008D
:100E7000B0FBF1F000F00700044308E0322000EB83
:100E800009106421B0FBF1F000F00F0004432C8145
:100E900006B0BDE8F08700000038014001468888B0
:100EA000C0F308007047C1F30802828070470FB496
:100EB00070B586B006460CA8019073E00B980078D8
:100EC0005C281CD10B98401C0B9000786E2809D030
:100ED00072280FD10D213046FFF7E5FF0B98401C1B
:100EE0000B900BE00A213046FFF7DDFF0B98401C0A
:100EF0000B9003E00B98401C0B9000BF4BE00B984D
:100F00000078252840D10B98401C0B90007864286D
:100F100018D0732833D1019810C801900BE02178C4
:100F20003046FFF7C0FF00BF80213046FFF7EEFEDE
:100F30000028F9D0641C20780028F0D10B98401CC0
:100F40000B9020E0019820C801900A2202A92846AF
:100F500000F0AAF902AC0BE021783046FFF7A3FFBE
:100F600000BF80213046FFF7D1FE0028F9D0641C75
:100F700020780028F0D10B98401C0B9003E00B98D0
:100F8000401C0B9000BF06E00B9810F8011B0B9063
:100F90003046FFF788FF00BF80213046FFF7B6FEDE
:100FA0000028F9D00B980078002887D106B070BCD3
:100FB0005DF814FB00BFFEE70FB4054B10B503A9A5
:100FC000044A029800F02CF810BC5DF814FB0000F5
:100FD00075120008300000200FB4084B10B504A9AA
:100FE00002AA039800F01CF8044602A9002000F0B1
:100FF000F3F8204610BC5DF814FB0000D91100087E
:1010000002E008C8121F08C1002AFAD170477047D1
:10101000002001E001C1121F002AFBD1704700002F
:101020002DE9FF4F8BB09A460F460546002606E095
:1010300025280BD052460D9990476D1C761C2878B8
:101040000028F5D10FB03046BDE8F08F0024A0464F
:101050000122604900E0044315F8013F203B02FAF9
:1010600003F00842F7D128782E2817D115F8010F80
:1010700044F004042A280ED06FF02F022878A0F143
:10108000300109290AD808EB880102EB410100EB85
:1010900001086D1CF2E757F8048B6D1C287869284D
:1010A0003ED006DC0028CDD063280BD0642804D1C4
:1010B00036E0732810D075284BD052460D999047D2
:1010C000761C85E017F8040B8DF8000000208DF8E1
:1010D0000100E946012003E057F8049B4FF0FF3080
:1010E00061074FF0000401D40AE0641C44450DDAA6
:1010F0008442FADB19F804100029F6D106E0641CDA
:101100008442FCDB19F804100029F8D1264404E0DD
:1011100019F8010B52460D999047641EF8D257E01A
:1011200001CF4FF00A0B002802DA40422D2102E0E5
:10113000210504D52B218DF82410012103E0E107BE
:1011400005D02021F7E70DF1200908910CE00021DE
:10115000F9E701CF4FF00A0BF9E75946FFF706F818
:1011600001F1300209F8012D0028F6D1ADEB09009C
:1011700000F1200B600701D44FF00108D84502DDD3
:10118000A8EB0B0000E000208046002406E009A840
:101190005246005D0D999047641C761C0898844265
:1011A000F5DB04E0302052460D999047761CB8F1EB
:1011B0000001A8F10108F5DC05E019F8010B524621
:1011C0000D999047761CBBF10001ABF1010BF4DCEB
:1011D0006D1C34E7092801000A68531C0B6010706D
:1011E000704700006FF004004FF0E02108610A48EA
:1011F00000680A49B0FBF1F0094908700846007818
:1012000000EB4001C1EBC0104FF6FF7101EAC000D6
:1012100004490880704700000400002000127A0092
:101220002C0000202E0000200146114A12884A435B
:101230004FF0E0235A6100229A611A46126942F087
:1012400001021A6100BF4FF0E022106900F00102B4
:101250001AB100F48032002AF5D04FF0E022126972
:1012600022F001024FF0E0231A6100229A617047D8
:101270002E00002070B504460D4600BF80210948AD
:10128000FFF744FD0028F9D0E1B20648FFF70BFE56
:1012900000BF40210348FFF739FD0028F9D0204660
:1012A00070BD000000480040F0B503460D461646EC
:1012B000002729460A2E03D0002008702846F0BDDA
:1012C00033B9302001F8010B002008702846F6E7FA
:1012D000002B03DA2D2001F8010B5B4242F2107261
:1012E0000DE093FBF2F404B937B104F1300001F8DA
:1012F000010B04FB123301270A2092FBF0F2002AB3
:10130000EFDC002008702846D9E7FFF76BFF4FF4A9
:10131000E13000F05BF84FF4E130FEF7E9FF01E067
:10132000FFF7D4F8FCE7000010B586B004460121B1
:101330004804FFF7FDFA01210420FFF709FB042010
:10134000ADF8040003208DF8060018208DF8070082
:1013500001A91C48FFF71EFA0820ADF8040004207C
:101360008DF8070001A91748FFF714FA26208DF819
:10137000000000208DF801008DF8020001208DF89A
:1013800003006846FFF79AFA02940020ADF80C00BB
:10139000ADF80E00ADF81000ADF814000C20ADF85B
:1013A000120002A90848FFF70DFD012240F2255165
:1013B0000548FFF7E2FC01210348FFF79BFC06B05C
:1013C00010BD0000000801400044004010B586B088
:1013D000044601218804FFF7ABFA01210820FFF73A
:1013E000B7FA4FF48060ADF8140003208DF81600B2
:1013F00018208DF8170005A91C48FFF7CBF94FF40A
:101400000060ADF8140004208DF8170005A91748F6
:10141000FFF7C0F927208DF8000000208DF80100AB
:101420008DF8020001208DF803006846FFF746FAA8
:1014300001940020ADF80800ADF80A00ADF80C00EA
:10144000ADF810000C20ADF80E0001A90848FFF718
:10145000B9FC012240F225510548FFF78EFC01211D
:101460000348FFF747FC06B010BD0000000C014028
:1014700000480040941400080000002038000000DC
:1014800000100008CC1400083800002008080000F4
:10149000101000080000000000A24A040000000034
:1014A0000000000001020304060708090000000014
:1014B00001020304010203040607080902040608E6
:0C14C00000000000000000000000000020
:04000005080000ED02
:00000001FF
