:020000040800F2
:10000000004E0020DD010008671300083D0F0008C6
:1000100031130008030C000801190008000000005B
:100020000000000000000000000000004501000882
:10003000050C0008000000008901000801170008F5
:10004000F7010008F7010008F7010008F7010008B0
:10005000F7010008F7010008F7010008F7010008A0
:10006000F7010008F7010008F7010008F701000890
:10007000F7010008F7010008F7010008F701000880
:10008000F7010008F7010008F7010008F701000870
:10009000F7010008F7010008F7010008F701000860
:1000A000F7010008F7010008F7010008F701000850
:1000B000F7010008F7010008F7010008F701000840
:1000C000F7010008F7010008F7010008F701000830
:1000D000F701000865170008F7010008F70100089C
:1000E000F7010008F7010008F7010008F701000810
:1000F000F7010008F7010008F7010008F701000800
:10010000F7010008F7010008F7010008F7010008EF
:10011000F7010008F7010008F7010008F7010008DF
:10012000F7010008F7010008F7010008F7010008CF
:10013000DFF80CD000F024FD00480047F928000843
:10014000004E0020224B19680868B0E8F00F80F3D9
:100150000988BFF36F8F4FF0000080F311884EF0D5
:100160000D0E70470000000006480068006880F32C
:10017000088862B661B6BFF34F8FBFF36F8F00DFA1
:1001800000BF00BF08ED00E0EFF30980BFF36F8F01
:100190000F4B1A6820E9F00F106008B54FF05000BF
:1001A00080F31188BFF34F8FBFF36F8F03F0B0FE62
:1001B0004FF0000080F31188BDE808401968086816
:1001C000B0E8F00F80F30988BFF36F8F704700BF6E
:1001D00054000020EFF30580704700000648804778
:1001E00006480047FEE7FEE7FEE7FEE7FEE7FEE71C
:1001F000FEE7FEE7FEE7FEE71517000831010008FD
:1002000040EA01039B0703D009E008C9121F08C098
:10021000042AFAD203E011F8013B00F8013B521E18
:10022000F9D27047D2B201E000F8012B491EFBD28F
:1002300070470022F6E710B513460A4604461946F1
:10024000FFF7F0FF204610BDF0B480EA0102D40FA2
:100250004200B2EB410F02D20246084611464A0064
:1002600042D0C30DDDB2C1F3C752AD1A202D35DA2D
:10027000C1F3160141F4000204B15242C5F1200657
:1002800002FA06F12A411044B3EBD05F23D0C4B187
:10029000012DA0EBC35009DCF0BC4FF0004202EA94
:1002A000C352DBB200F5000000F097BB400000F144
:1002B000807000EBC350A0F1807040EAD17049001B
:1002C00009E0490841EAC071A0EBC35000F5000005
:1002D000400800EBC350F0BC00F076BB6142012245
:1002E00002EB4101001BF6E7F0BC704781F00041D2
:1002F000AAE780F00040A7E780EA010210B502F00B
:100300000043400022D04A001FD0010E01EB1261D1
:10031000C0F35600C2F3560240F4000042F400025B
:10032000A0FB022000047F39140400D0401C50EAD6
:10033000124001D44000491EC2B20C0604EBD0109A
:10034000401C4008802A02D003E0002010BD20F0AD
:100350000100002900DA0020184310BD30B480EA03
:10036000010202F0004530F0004221F0004013D0BD
:1003700090B1C30DD40DC2F31601C0F31600E41AF8
:1003800041F4000140F400027D34914201D3641C29
:1003900000E04900002C02DA30BC002070474FF426
:1003A00000000023914201D3891A034340084FEA19
:1003B0004101F7D151B1914202D14FF0004105E026
:1003C00002D24FF0010101E06FF0010103EBC450D4
:1003D000284430BC00F0F8BA420005D0C0F3C75240
:1003E0005242914201DC0020704700EBC15070473F
:1003F0002DE9FE4F804681EA0300C00F0C460090B5
:1004000021F0004123F00045B8EB0200A94105D2DC
:100410004046214690461C460B46024623F00040CB
:10042000104347D0270DC7F30A00C3F30A510290C7
:10043000401A019040286BDAC3F3130040F4801B8C
:100440000098924620B10023D2EB030A63EB0B0B1A
:1004500001985946C0F14002504600F084FA064621
:100460000D4650465946019A00F09CFA10EB0800E0
:100470006141002487EA115284EAE7731A4340D0AD
:10048000009A62B3019A012A4FEA075215DC001B59
:1004900061EB02014FF0004202EA0752CDE900424F
:1004A000001C41F5801132462B4600F002FB03B0E0
:1004B000BDE8F08F40462146F9E7001B61EB0201E1
:1004C000001C41F5801300185B412018A2F50017AD
:1004D00047EB030140EAD570B6196D4111E06D0894
:1004E0004FEA360645EAC0754FEA0752001B61EB3A
:1004F0000201001C41F5801149084FEA3000001943
:10050000514132462B4603B0BDE8F04F00F0C2BA6D
:100510000098012240000023D0EB020263EBE0735D
:10052000009821464FEAE074B8EB000061EB04014B
:10053000E9E783F000435BE781F0004158E72DE9EC
:10054000FE4F81EA030404F0004421F000410094CE
:100550004FF0000B23F0004350EA01045ED052EA52
:1005600003045BD0C3F30A54C1F30A552C44A4F22C
:10057000F3340194A0FB0254C1F3130141F4801140
:10058000C3F3130343F4801301FB024400FB034E47
:10059000840A970A44EA815447EA8357A4FB076810
:1005A00002958D0A05FB07854FEA932C04FB0C543A
:1005B0002705029D4FEA065847EA1637B5EB0805AE
:1005C0006EEB070C870E920E47EA811742EA831200
:1005D000A7FB0201B6EB0B0164EB00042B0D43EA11
:1005E0000C335E1844EB1C50DA465146E7FB02011F
:1005F000C5F313044FEA0B3343EA14534FEA0432B2
:10060000019C43EA0603A4F10C040294009CCDE98A
:1006100000B400F04EFA03B0BDE8F08F00200146B0
:10062000F9E72DE9F04D81EA030404F0004B21F0D5
:10063000004514464FF0000A23F0004150EA05023D
:1006400020D054EA01021DD0C5F30A570246C5F373
:100650001303C1F31300C1F30A5640F4801543F4A9
:100660008013A7EB0608101BD64608F2FD3873EB83
:10067000050002D308F1010801E092185B41B8F1CE
:10068000000F03DA00200146BDE8F08D00204FF492
:100690008011064684460EE0171B73EB050705D351
:1006A000121B63EB050306434CEA010C49084FEAB1
:1006B000300092185B4150EA0107EDD152EA030085
:1006C00012D082EA040083EA0501084305D0101B1A
:1006D000AB4106D20122002306E000224FF0004386
:1006E00002E06FF0010253101AEB06004CEB0851C8
:1006F00010EB0A0041EB0B01BDE8F04D00F0CAB968
:1007000070B521F0004303430CD0C1F30A55002417
:10071000D5EB040564EB0403D617AD1AB34102DB35
:100720000020014670BD201841EB025170BDC10F81
:1007300080EAE0700844CA079623002100F04DB912
:1007400096230022114600F048B90EB5C10F80EA89
:10075000E0700844CA07002140F233438DE80E00E0
:100760000A460B4600F0A5F903B000BD00F00042B8
:1007700020F00040C10DC0F3160040F400007F29B6
:1007800001DA00207047962903DCC1F19601C840C8
:1007900001E096398840002AF4D04042704720F0AA
:1007A0000040C10DC0F3160040F400007F2901DABB
:1007B00000207047962903DCC1F19601C8407047BC
:1007C00096398840704770B5C1F30A5201F0004570
:1007D0000024C1F3130140F2FF3341F480119A4227
:1007E00001DA002070BD40F233439A42A2F2334254
:1007F00003DC524200F0C6F800E090402C43F1D0F8
:10080000404270BD00F0004230F000400AD0C10DFF
:1008100001F56071C0F3160042EA0151C2084007B9
:1008200011437047002001467047000030B5041E98
:1008300071F1000404DB4FF00044404264EB01011D
:10084000141E73F1000405DB1C464FF000435242B6
:1008500063EB04038B4208BF824230BD30B5041EF7
:1008600071F1000404DB4FF00044404264EB0101ED
:10087000141E73F1000405DB1C464FF00043524286
:1008800063EB0403994208BF904230BD01F000437E
:1008900030B421F0004150EA010206D00A0DA2F561
:1008A0006072C1F31301002A02DC30BC00207047E3
:1008B000440F44EAC104C100E01830BC00EBC25050
:1008C00000F082B8002801DBC0F10040002901DB04
:1008D000C1F100418142704730B50B46014600200E
:1008E0002022012409E021FA02F59D4205D303FAF2
:1008F00002F5491B04FA02F52844151EA2F1010273
:10090000F1DC30BD2DE9F05F0546002092469B46A4
:1009100088460646814640241BE028464146474615
:10092000224600F02FF853465A46C01A914110D380
:1009300011461846224600F016F82D1A67EB0108FA
:100940004F4622460120002100F00DF817EB000968
:100950004E41201EA4F10104DFDC484631462A4600
:100960004346BDE8F09F202A04DB203A00FA02F15A
:10097000002070479140C2F1200320FA03F319438D
:1009800090407047202A04DB203A21FA02F000212F
:10099000704721FA02F3D040C2F12002914008438F
:1009A00019467047202A06DBCB17203A41FA02F09D
:1009B00043EAE07306E041FA02F3D040C2F12002BC
:1009C00091400843194670470029A8BF7047401C52
:1009D000490008BF20F00100704710B4B0FA80FC55
:1009E00000FA0CF050EA010404BF10BC704749B192
:1009F000CCF1200421FA04F411FA0CF118BF012102
:100A000021430843A3EB0C01CB1D4FEA00614FEAE1
:100A1000102042BF002010BC704700EBC3501044B0
:100A20000029A4BF10BC7047401C490008BF20F03B
:100A3000010010BC7047F0B4002802DCF0BC0020BC
:100A40007047C0F3C751C0F3160040F40000CA0756
:100A500001D14000491E3F2202EB610500221146F0
:100A60004FF4000626FA01F31344D418844201D847
:100A7000001B1A464000491C1729F3DD5100814232
:100A800002D24FF0FF3100E0002102EBC550F0BC74
:100A9000FFF79ABF10B5141E73F1000408DA401C6A
:100AA00041F1000192185B411A4301D120F001008D
:100AB00010BD2DE9F04D92469B4611B1B1FA81F27D
:100AC00002E0B0FA80F220329046FFF74CFF044675
:100AD0000F4640EA0A0041EA0B0153465A460843D2
:100AE00013D0114653EA010019D0C8F14002504614
:100AF000FFF748FF05460E46504659464246FFF767
:100B000032FF084305D0012004E020463946BDE805
:100B1000F08D0020054346EAE0762C4337430A98DF
:100B20006305E40AA0EB08000022FD0A44EA4754EA
:100B30000A3002D500200146E9E701051019694194
:100B4000DDE9084500196941BDE8F04DA2E7C1F3B0
:100B50000A52C1F3130140F2FF3341F480119A426B
:100B600002DA00200146704740F233439A42A2F273
:100B7000334202DC5242FFF705BFFFF7F4BE00002C
:100B8000064C074D06E0E06840F0010394E80700DA
:100B900098471034AC42F6D3FFF7CEFA70540008F1
:100BA0009054000810B567220821012001F07EFF53
:100BB00072221021012001F079FF6F2218210120FB
:100BC00001F074FF75222021012001F06FFF7022D7
:100BD0002821012001F06AFF49224621012001F06D
:100BE00065FF49224E21012001F060FF4922562174
:100BF000012001F05BFFBDE810404FF47A7001F076
:100C00000BBEFEE770472DE9F0470D46089F814671
:100C10001C46164639461046FFF76EFB80462146B5
:100C20002846FFF769FB4146FFF760FB80462146F7
:100C30003046FFF761FB044639462846FFF75CFB68
:100C40002146FFF701FBC9E90080BDE8F0870000FD
:100C50002DE9F04F002189B005464FF4807340F232
:100C6000FF140A468A420FDA05EBC100D0E900679B
:100C7000CDE9046705EBC206D6E9007CC0E9007C3B
:100C8000DDE90407C6E90007184603E0091A00EB8E
:100C9000D07040108842F9DD521C0144A242E1DBD1
:100CA0004FF40070012101E009F1010100EBD07067
:100CB000401089460128F7D168E000BFA8F1010182
:100CC000022000FA01FB0BEBDB704FEA600A4FF0E9
:100CD0007E500190002002905046FFF736FD0246FC
:100CE0000B462D482D49FFF79CFC0C46064600F0AC
:100CF00009FEFFF7CBFD03903046214600F010FEC1
:100D0000FFF7C4FD80F000400790AAF10100002623
:100D1000069037E0344629E0029804EB0A07009079
:100D200005EBC7000890D0E9001204A8019BFFF76B
:100D30006AFF55F834000499FFF7D8FA45F83700F0
:100D400005EBC40705997868FFF7D0FA01460898C3
:100D5000416055F834000499FFF776FA45F83400FD
:100D600005997868FFF770FA5C447860B4F5007F05
:100D7000D2DB0798009001A890E80E00FFF743FF30
:100D80000698761C8642C5DD08F10100804648457C
:100D900094DD09B0BDE8F08F182D4454FB210940C3
:100DA00070B505464FF43026304600F059F8042857
:100DB00011D1094C206940F0020020616561206971
:100DC00040F040002061304600F04AF8216941F6C9
:100DD000FD721140216170BD0020024008490420CD
:100DE000CA68D20701D001207047CA68520701D5EE
:100DF00002207047C968C906FBD503207047000070
:100E0000002002400248016941F080010161704701
:100E100000200240F0B506464FF400570D46384614
:100E200000F01EF804280CD1064C206940F00100A7
:100E300020613580384600F013F82169BA1E114050
:100E40002161F0BD0020024003480249416003498E
:100E5000416070472301674500200240AB89EFCD18
:100E600000B50346FFF7BAFF03E000BFFFF7B6FF88
:100E70005B1E012803D0002B00D1052000BD002BF4
:100E8000F4D1FAE7F0B5CA78002502F00F03D206D4
:100E900001D58A7813430A784FF00F0E12F0FF0F36
:100EA0004FF001021CD004680F8802FA05F63740A3
:100EB000B74211D14FEA850C0EFA0CF724EA070766
:100EC00003FA0CF43C43CF78282F02D0482F02D0ED
:100ED00002E0466100E006616D1C082DE4D3046069
:100EE0000C88FF2C1ED944685FF0000606F1080745
:100EF00002FA07F50F882F40AF420FD14FEA860C58
:100F00000EFA0CF7BC4303FA0CF73C43CF78282FBA
:100F100000D14561CF78482F00D10561761C082E9D
:100F2000E4D34460F0BD0246002092680A4200D03B
:100F3000012070474161704701617047FEE7000082
:100F40002DE9F0411D4616460F46044600F0D2F842
:100F5000204600F083F800F035F9F8B200F07EF892
:100F600000F030F900F0C6F8641CE0B200F076F84A
:100F700000F028F900246F1E0DE000BF00F034F8E7
:100F800006F8010BBC4201D1012000E0002000F076
:100F900091F8641CA4B2AC42F0D300F0C9F801206F
:100FA000BDE8F08170B50D46044600F0A3F8204678
:100FB00000F054F800F006F9284600F04FF800F071
:100FC00001F900F097F8641CE0B200F047F800F077
:100FD000F9F800F009F80446012000F06BF800F081
:100FE000A7F8204670BD000070B5104E0024002008
:100FF00000F01EF840213046FFF79EFF01F076FC1E
:101000006806050E80213046FFF78DFF012801D1CB
:1010100045F0010540213046FFF78CFF01F066FCEA
:10102000641CE4B2082CE2D3284670BD000C0140D9
:1010300008B58021084AADF8001020B103208DF8D2
:101040000200102000E048208DF803006946104699
:10105000FFF718FF08BD0000000C014070B5144EEA
:10106000054640213046FFF765FF01F03FFC0024B4
:101070000120FFF7DDFF05FA04F000064FF08001C4
:10108000304602D5FFF758FF01E0FFF753FF40213C
:101090003046FFF751FF01F029FC40213046FFF7B1
:1010A00049FF01F023FC641CE4B2082CE0D370BDBE
:1010B000000C014070B505460120FFF7B9FF0C4C4C
:1010C0004FF08001204615B1FFF736FF01E0FFF732
:1010D00031FF40212046FFF72FFF01F007FC4021A0
:1010E0002046FFF727FFBDE8704001F0FFBB00007E
:1010F000000C014010B50120FFF79AFF0B4C402176
:101100002046FFF719FF80212046FFF715FF01F069
:10111000EDFB80212046FFF70DFF01F0E7FB2046A5
:10112000BDE810404021FFF705BF0000000C014062
:1011300010B50120FFF77CFF094C80212046FFF706
:10114000F9FE01F0D3FB40212046FFF7F5FE01F048
:10115000CDFB2046BDE810408021FFF7EDBE00002A
:10116000000C014008B50121082000F0CBF9C02097
:10117000ADF8000003208DF8020010208DF8030068
:1011800069460248FFF77EFE08BD0000000C0140E2
:1011900070B515460E460446FFF7ACFF2046FFF734
:1011A0005DFF00F00FF83046FFF758FF00F00AF837
:1011B0002846FFF753FF00F005F8FFF7B9FF0120BD
:1011C00070BD000070B50020FFF732FF0E4D4021CA
:1011D0002846FFF7B1FE01F089FB07E0641CE4B28A
:1011E000FA2C03D9FFF7A4FF012070BD8021284607
:1011F000FFF799FE0028F1D140212846FFF79AFE1B
:1012000001F074FB002070BD000C014008B5144CC7
:10121000144D4FF0FF36012300961A462021E06856
:1012200002F01AFF02F02EFB01F0EAF820700146EE
:101230000DA000F04DFC6868FFF7E4FA024628684C
:101240000B4601460AA000F043FC0421E06802F0CE
:10125000ABFE02F053FB0A2002F040FCDBE700008B
:1012600000000020D800002025640D0A00000000C6
:1012700048523A25642053504F323A252E31660D9C
:101280000A00000010B5C0220221AE20FFF780FF47
:1012900000220321AE20FFF77BFF00220421AE20B5
:1012A000FFF776FF00220521AE20FFF771FF002235
:1012B0000621AE20FFF76CFF0F220821AE20FFF7BA
:1012C00067FF03220921AE20FFF762FF2B220A21CC
:1012D000AE20FFF75DFF32220C21AE20FFF758FF52
:1012E00032220D21AE20FFF753FF7F221021BDE8EF
:1012F0001040AE20FFF74CBF08B50121082000F0D8
:1013000001F904208DF80300C001ADF80000694622
:101310000148FFF7B7FD08BD000C014010B54022A1
:101320000921AE20FFF734FF002800D0012010BDB6
:10133000FEE710B50446FFF787FD2046FFF730FDB6
:10134000BDE81040FFF75EBD70B50C460546FFF7DF
:101350007BFDA1B22846FFF75DFDBDE87040FFF7B9
:1013600051BD00887047704770B50F23C47801786D
:101370000122F4B1144C2468457804F4E064C4F507
:10138000E064240AC4F10406E3408478B5401C40BC
:101390002C4301F1E021230181F80034007800F0B2
:1013A0001F018A404009800000F1E020C0F80021C0
:1013B00070BD01F01F0082404809800000F1E0206C
:1013C000C0F8802170BD00000CED00E00249084328
:1013D00002490860704700000000FA050CED00E0CB
:1013E00008B50125344C4FF0FF3800274FF4FA7A46
:1013F0000123CDF800801A460421E06802F02CFE9B
:1014000002F040FA2DA000F063FB01F035FB2078DC
:10141000002850462DD001F035FA01F02DFB294E61
:10142000254829A11030326800F062FB22490020D3
:10143000103101F071FB7068FFF7E4F902461E48B5
:101440000B4625A1103000F053FB1B490220103140
:1014500001F062FBDFF88C90308829F81500706885
:10146000FFF79DF909EB4501AD1C488000F022F91A
:1014700017E001F007FA01F0FFFA0F481AA1103047
:1014800000F036FB0C490020103101F045FB0A4802
:1014900019A1103000F02CFB07490220103101F097
:1014A0003BFB27702021E06802F07EFD02F026FA67
:1014B0000A2002F013FB9BE7000000204F4C45443C
:1014C0000D0A0000D8000020486561727420526146
:1014D00074653A256400000053504F323A252E328D
:1014E00066000000B00100204865617274205261FE
:1014F00074653A2D2D00000053504F323A2D2D2E99
:101500002D2D0000044A0029916901D0014300E01B
:1015100081439161704700000010024030B51F49BF
:101520004A6812F00C031E4A03D0042B01D0082B8A
:1015300021D002604A680F231A4C03EA1212A35CFE
:101540000268DA4042604B68072505EA1323E35C32
:1015500022FA03F383604B6805EAD323E35CDA40A5
:10156000C2604968032303EA9131231F595CB2FB2F
:10157000F1F1016130BD4A684B6802F470124FF01E
:10158000020413F4803F04EB924202D04B689B03A9
:1015900001D5054B00E0024B5A43CAE70010024058
:1015A00000127A004400002000093D000CB5002123
:1015B000264801910091026842F4803202604FF4A3
:1015C000A063026802F400320092019A521C019258
:1015D000009A12B9019A9A42F3D10268920333D564
:1015E000012100911A490A6842F010020A600A6853
:1015F00022F003020A600A6842F002020A604168AF
:10160000416041684160416841F4806141604168E6
:1016100021F47C114160416841F4E81141600168A6
:1016200041F08071016001688901FCD5416821F0B9
:1016300003014160416841F0020141604168C1F32A
:1016400081010229FAD10CBD00910CBD00100240AD
:10165000002002402DE9F041144D2846FFF781FE9D
:101660004AF2A554AE14A04211D02846FFF761FEFD
:1016700021462846FFF768FE5FF0010405EB4400B1
:101680000021FFF761FE641CA4B2B442F6D3084FF8
:10169000002400BF05EB4400FFF763FE27F81400A9
:1016A000641CA4B2B442F5D3BDE8F08100FC00088C
:1016B000B00100202DE9F041094D2846FFF739FE21
:1016C0000024084E5FEAA54705EB440036F81410E5
:1016D000FFF73AFE641CA4B2BC42F5D3BDE8F0812A
:1016E00000FC0008B00100204FF0E0210428086948
:1016F00003D020F004000861704740F00400FAE7CE
:1017000010B502F095FF012803D0BDE8104002F0AB
:10171000ADBD10BD0F4810B5016841F00101016079
:1017200041680D4A1140416001680C4A1140016056
:10173000016821F480210160416821F4FE014160CB
:101740004FF41F018160FFF731FF05494FF0006042
:10175000086010BD001002400000FFF8FFFFF6FE19
:1017600008ED00E070B5154C40F22551204600F020
:1017700035F800280ED0204600F0BEF8C2B210485E
:1017800001880B0406D44C044FF0000306D50A2A46
:1017900001D0038070BD41F400410DE00D2A09D055
:1017A000C1F30D04074D491C89B22A550180C72990
:1017B000EFD870BD41F48041018070BD0038014018
:1017C00038000020E80000200029818902D041F47F
:1017D000005101E021F400518181704730B501F0E2
:1017E0001F0201240025C1F3421304FA02F2012B67
:1017F0000FD0022B0FD0838A4FEA112100881342A9
:1018000004FA01F400EA040001D000B101252846E1
:1018100030BD8389F0E7038AEEE710B5C1F34213C8
:1018200001F01F040121A140012B07D0022B07D09A
:101830001430002A026805D00A4304E00C30F8E7AF
:101840001030F6E78A43026010BD000030B5044650
:10185000008A85B00D464CF6FF710840E9880143C7
:101860002182A1894EF6F3100140A8882A891043ED
:101870006A890A431043A081A08A4FF6FF410840BD
:10188000A9890143A1826846FFF748FE19488442AE
:1018900001D1039800E00298A189090400EBC0017E
:1018A00001EB0010296801D5490000E08900B0FB78
:1018B000F1F06422B0FBF2F109010B096FF0180599
:1018C0006B4300EB8300A3891D044FF0320306D560
:1018D00003EBC000B0FBF2F000F0070005E003EB03
:1018E0000010B0FBF2F000F00F000843208105B0BB
:1018F00030BD0000003801408088C0F30800704708
:10190000FEE7000010B5044A044BFEF771FDBDE888
:10191000104000F005B80000182D4454FB21F93F99
:101920002DE9F04F002687B004460D46DFF8788198
:101930005E4FDFF87C91DFF87CA132463346FEF73C
:1019400075FF02D2012685F000453A465A4B2046E3
:10195000294601F04DF804460D463A464346FEF747
:101960007DFF0AD2002E7DD000263A46434620460F
:101970002946FEF7DEFD04460D463A464F4B20460B
:101980002946FEF76BFF07D23A46434620462946D2
:10199000FEF7D2FD04460D46C8464A46D146534698
:1019A00020462946FEF73DFEFEF70DFF0746FEF7EF
:1019B000CCFE42464B46FEF7C2FD22462B46FEF7C2
:1019C000BBFD04460D4642463D4BFEF747FF08D29D
:1019D00042464B46204629467F1CFEF7AAFD044698
:1019E0000D463848224600EBC701D1E90083C7F114
:1019F000640100EBC1009946D0E900739A462B467A
:101A000010461946FEF79BFD22462B46CDE9000104
:101A1000FEF795FD834622462B460291FEF78FFD89
:101A200042464B46FEF78BFD0022274BFEF7F9FDA1
:101A3000CDE9040158463A4653460299FEF77FFD28
:101A40000022224BFEF7EDFDCDE90201DDE90001A8
:101A500042464B46FEF773FD4FF0FF32FEF750FE55
:101A60008B4600E01DE000903A465346204629464A
:101A7000FEF765FD42464B46FEF7BAFC5B46009A10
:101A8000FEF757FDDDE90223FEF753FDDDE90423F0
:101A9000FEF7AEFC002E01D081F0004107B0BDE89A
:101AA000F08F012661E70000FB210940182D445406
:101AB0001A271792BF15903FFB211940FB21F93FD0
:101AC000BF15803F484B0008000038400000184018
:101AD0000FB4054B10B503A9044A029800F0F4F8BE
:101AE00010BC5DF814FB0000D52800083C00002065
:101AF0000FB4084B10B504A902AA039800F0E4F84B
:101B0000044602A9002000F076FC204610BC5DF8D7
:101B100014FB0000F723000802E008C8121F08C1E8
:101B2000002AFAD170477047002001E001C1121F5E
:101B3000002AFBD17047000001490860704700008F
:101B4000E40000202DE9FF5F82B00021DDE90430D0
:101B5000020DDDF840B0034318D044F61050A2F255
:101B6000FF3242431514119801281FD0A5EB0B003A
:101B7000401C5FEA000A4FF000064E4FDFF8389134
:101B8000B046504615D5CAF1000413E0119801245F
:101B90004AA3012801D16FEA0B010298119AC0E90A
:101BA0000031C0E9024206B0BDE8F09FCBF1000071
:101BB000DFE704460021404A491842EB0450CDE9D2
:101BC000001012E0E00707D032463B464046494647
:101BD000FEF7B5FC8046894632463B46104619461C
:101BE000FEF7ADFC06460F466410002CEAD1DDE995
:101BF0000401DDE90023BAF1000F06DAFEF79FFCCD
:101C000042464B46FEF79BFC05E0FEF70AFD4246C6
:101C10004B46FEF706FD04460E460022284BFEF713
:101C20001DFE03D84FF0FF30014607E00022254B90
:101C300020463146FEF7DCFBFEF789FF102409E061
:101C4000002C0ADB0A220023FEF75CFE039B3032E5
:101C50001A55641E50EA0102F2D1641C039AC4F1C1
:101C600011031444119A012A03D0012208430DD113
:101C70000AE0084304D000204FF0110B119072E7E6
:101C8000A3EB0B056D1E0DE05B4504DD4FF000027C
:101C900005F1010504E003DA4FF00002A5F10105AA
:101CA000002AECD002981199C0E90231C0E9004540
:101CB00079E70000000014400000F03F3000000011
:101CC0000000F0430000E03F2DE9FF4F95B09B4638
:101CD0008946064600250FE2252877D100242746AD
:101CE000F84A0121059400E0044316F8013F203B27
:101CF00001FA03F01042F7D130782A2811D06FF0A2
:101D00002F033078A0F13002092A16D8059A44F042
:101D1000020402EB820203EB42021044761C05909F
:101D2000EFE759F8042B0592002A03DA504244F4F5
:101D30000054059044F00204761C30782E2816D109
:101D400016F8010F44F004042A280DD06FF02F027A
:101D50003078A0F13003092B09D807EB870302EB99
:101D60004303C718761CF3E759F8047B761C3078D8
:101D70006C280FD006DC4C2817D068280DD06A28B4
:101D800014D104E0742810D07A280FD10DE044F467
:101D900000140AE044F4801401E044F44014727822
:101DA000824202D104F58014761C761C30786628B5
:101DB0000BD013DC582877D009DC002875D04528D3
:101DC000F6D04628F4D047281AD19DE118E06328C0
:101DD00035D0642879D0652812D195E1702873D068
:101DE00008DC6728F1D069286FD06E280DD06F28E5
:101DF00006D1B5E073282CD0752875D0782874D01A
:101E00005A46179990476D1C75E1C4F30250022899
:101E100009D003280DD0D9F8001004280DD00D608A
:101E200009F1040967E1D9F80010EA17C1E9005285
:101E3000F6E7D9F800100D80F2E70D70F0E719F819
:101E4000041B8DF8001000208DF80100EA460120E7
:101E500003E059F804AB4FF0FF3061074FF0000189
:101E600002D40DE008F101018846B9420FDA80453D
:101E7000F8DB1AF808100029F4D108E008F1010194
:101E800088468142FADB1AF808100029F6D1059835
:101E90005B46A0EB080721463846179A00F094FAF3
:101EA000284400EB080507E04DE029E10DE01AF8B1
:101EB000010B5A4617999047B8F10108F7D25B46D3
:101EC00021463846179A13E142E00A220092C4F3F1
:101ED00002524FF0000A022A08D059F804CB032A14
:101EE0004FEAEC710AD00DE029E02AE009F1070180
:101EF00021F00702F2E802C1914609E00FFA8CFCDA
:101F00004FEAEC71042A03D14FFA8CFC4FEAEC71D2
:101F1000002907DA0A460021DCF1000C61EB02011E
:101F20002D2202E0220504D52B228DF80420012267
:101F300003E0E20701D02022F7E7904659E00A21AA
:101F400002E010220DE010214FF0000A00910BE09A
:101F500010224FF0000A44F004040827009203E026
:101F600008224FF0000A0092C4F30252022A05D060
:101F700059F804CB0021032A08D009E009F1070130
:101F800021F00702F2E802C1914605E01FFA8CFC3D
:101F9000042A01D10CF0FF0C4FF00008220728D5CD
:101FA000702806D0009B83F0100353EA0A0305D083
:101FB0000EE040228DF80420012208E05CEA0102D4
:101FC00006D030228DF804208DF8050002229046BC
:101FD000009B83F0080353EA0A030AD15CEA01027A
:101FE00001D1620705D530228DF804204FF0010899
:101FF0007F1E582804D034A003900EA802900DE054
:1020000036A0F9E753466046009AFEF77BFC84460B
:102010000398825C0298401E029002705CEA010004
:10202000F0D1029806A9081A00F1200A600702D52B
:1020300024F4803400E00127574502DDA7EB0A00B5
:1020400000E0002000EB0A01009005984144401A8E
:102050000590E00306D45B462146179A059800F0E8
:10206000B3F90544002706E001A85A46C05D179958
:1020700090476D1C7F1C4745F6DBE0030CD55B46A3
:102080002146179A059800F09FF9054404E0302096
:102090005A46179990476D1C0099481E00900029D8
:1020A000F5DC08E0029802995A460078491C029132
:1020B000179990476D1CBAF10001AAF1010AF1DCF1
:1020C00065E10000092801003031323334353637FC
:1020D0003839616263646566000000003031323374
:1020E0003435363738394142434445460000000014
:1020F00000F058F90544761C307800287FF4ECADE8
:1021000019B02846BDE8F08F620700D4062709F110
:10211000070222F0070CFCE80223E14603F0004826
:102120005FEA080C02D00FF2702C0DE05FEA045C4D
:1021300002D50FF2682C07E05FEAC47C02D00FF2F0
:10214000602C01E0AFF2700C4FF0FF3823F0004339
:10215000CDF850C065280CD006DC452809D04628AB
:102160001DD047283DD13DE0662818D067287ED194
:1021700038E00021112F01DB112000E0781CCDE9AF
:10218000000106A90EA8FFF7DDFCDDE90F010E9A9C
:1021900003910021009207F1010A04914DE04FF0F4
:1021A00000400097CDE9011006A90EA8FFF7CAFC70
:1021B000DDE90F0203920E9B11990022DDF80CA0BD
:1021C0000093049211B9791C00EB010AB7EB0A00E5
:1021D00004D4C0F1FF3007F1010A0490AAEB070014
:1021E000019044E0012F00DA01270021112F01DDC9
:1021F000112000E03846CDE9000106A90EA8FFF73E
:10220000A1FCDDE90F010E9A0391002104910092D7
:10221000BA4621070CD40399514500DA8A46BAF12F
:10222000010F05DD009AAAF10101515C302908D0A7
:10223000B84202DA10F1040F06DA0121CDE90110EB
:1022400015E0AAF10101E9E7002805DC0499014441
:102250000491AAEB000102E0411C514500DD8A46D1
:102260000499401A401C01904FF000400290200752
:1022700004D40198504501DBCDF8048000208DF88E
:102280004F0002980DF14F07B0F1004F25D02B20E1
:102290000E9002984FF0020800280CDA404202909B
:1022A0002D200E9007E00A210298FEF715FB303131
:1022B000029007F8011DB8F10001A8F10108F2DC55
:1022C00002980028EFD1791E0E980870307800F03F
:1022D000200040F0450007F8020D12A8C01B00F1D5
:1022E00007081498007800B1012000EB0A0101985A
:1022F00001EBE07105984144401A401E0590E0034F
:1023000006D45B462146179A059800F05DF805440F
:102310001498007818B15A46179990476D1CE0033D
:1023200024D55B462146179A059800F04DF80544E0
:102330001CE00498002807DBDDE90301884203DD87
:102340000098405C179901E0179930205A46904751
:10235000049805F10105401C04900198401E01906D
:1023600004D12E205A46179990476D1CBAF10001EE
:10237000AAF1010ADDDC05E017F8010B5A461799AE
:1023800090476D1CB8F10001A8F10108F4DC5B4630
:102390002146179A0598ABE62D0000002B0000009F
:1023A000200000002DE9F041044600251E46174696
:1023B000880404D405E039462020B0476D1C641E13
:1023C000F9D52846BDE8F0812DE9F0410446002505
:1023D0001E469046C80301D5302700E02027880418
:1023E00004D505E041463846B0476D1C641EF9D55A
:1023F0002846BDE8F0810A68531C0B6010707047D6
:1024000070B500F0A7F94FF40074164D02E000BF5C
:1024100000F098FA21462846FEF785FD0028F7D0FF
:102420001148008840B100201049098831B10021CD
:10243000084305D0002070BD0120F5E70121F7E732
:1024400000F01EF80A4C0B496068884202DD0A4819
:102450000A4901E0FEF7D6F9FEF718FA606001209C
:1024600070BD0000000C0140E2000020E0000020F0
:10247000D8000020E1FAC7428FC2F5285CFF58401F
:102480002DE9F04F4FF000098BB0A74D4F46CDF826
:1024900010904C4605F584564FF40078CDF80C901A
:1024A00055F834104846FDF7CFFE814656F83410F3
:1024B0003846FDF7C9FE641CA4B207464445EFD375
:1024C0006FF0080421464846FDF786FF029021463A
:1024D0003846FDF781FF00244746019055F8340047
:1024E0000299FDF703FF45F8340056F834000199CE
:1024F000FDF7FCFE46F83400641CA4B2BC42EDD3E8
:1025000001246FF001094FF4FF7A00BF55F8340041
:102510000121FDF761FF05EBC40757F8081CFDF723
:1025200093FEB968FDF790FE4946FDF755FF45F863
:10253000340056F834000121FDF74EFF06EBC407C6
:1025400057F8081CFDF780FEB968FDF77DFE494687
:10255000FDF742FF46F83400641CA4B25445D5D9B7
:102560000024AB46B2460BEBC4055E465BF8340074
:10257000A968FDF769FE2969FDF766FEA969FDF7FF
:1025800063FE296AFDF760FEA96AFDF75DFE296B0F
:10259000FDF75AFEA96BFDF757FE6FF002084146A2
:1025A000FDF71AFF46F834000AEBC40557465AF8FF
:1025B0003400A968FDF748FE2969FDF745FEA969C1
:1025C000FDF742FE296AFDF73FFEA96AFDF73CFED2
:1025D000296BFDF739FEA96BFDF736FE4146FDF785
:1025E000FBFE47F834005148002101804E48FEF7B9
:1025F0002FFB4F48FEF72CFB00244FF4007800BF60
:1026000006EBC40040680146FDF776FE054656F825
:1026100034000146FDF770FE2946FDF715FE01F076
:1026200045F846F8340007EBC40040680146FDF762
:1026300063FE054657F834000146FDF75DFE294666
:10264000FDF702FE01F032F846F83400641CA4B233
:102650004445D5D35FF00105049856F83510FDF7D1
:10266000F3FD049057F835100398FDF7EDFD6D1C50
:10267000ADB203904545EFD3FA212B4800F010F995
:102680000446FA212A4800F00BF92046FEF75DF8CF
:102690000022284BFDF753FF6FF00802FEF730F8D9
:1026A0000022254BFDF74BFFFEF7F0F8FEF75EF832
:1026B000DFF8789009F10409C9F80000019904983D
:1026C000FDF71AFE0446DDE90210FDF715FE21466E
:1026D000FDF744FEFEF796F804460E46174A184BDF
:1026E000FDF72DFF0746884620463146154A164B12
:1026F000FDF725FF22463346FDF721FF3A464346C4
:10270000FDF776FE114A124BFDF772FEFEF7BEF89A
:102710006D1CACB2C9F80400B4F5FC7FFFF423AF24
:102720000BB0BDE8F08F0000FC280020D400002092
:102730007C3900200000694000004E40B4C876BEDD
:102740009F5A3E4048E17A14AE8746C0AE47E17AD0
:1027500014B657402DE9F05F184DDFF86880002768
:102760002F804FF40076DFF858A0DFF85CB008F552
:10277000845918E000F0E6F82C88B44213D2BAF875
:102780000000FDF7DDFF48F8340008EBC4004760A7
:10279000BBF80000FDF7D4FF49F8340009EBC40092
:1027A000641C47602C8031460848FEF7BCFB0028BB
:1027B000E0D02888B042F6D3BDE8F09FD4000020D6
:1027C000E0000020FC280020E2000020000C014076
:1027D00010B50420FEF788FF0C480D4A01680D482B
:1027E000B1FBF2F3B1FBF2F14FF47A725143037093
:1027F000012242804FF0E020026942F002020261B1
:102800004161016941F00101016110BD200000201A
:1028100040420F003400002070B5044601F008FF6C
:1028200001280CD0094D6888844203D3B4FBF0F032
:1028300001F054F96888B4FBF0F100FB11444FF447
:102840007A706043BDE8704000F002B834000020A8
:1028500070B54FF0E024002265690949A369097841
:102860004843A1699942FCD002D2A3EB010302E0E4
:10287000A5EB010633441A440B468242F1D370BDE6
:102880003400002070B5054600244FF47A7603E04A
:102890003046FFF7DDFF641CAC42F9D370BD000089
:1028A0002DE9F04104240F4606462546D0F8208045
:1028B0000AE000BF56F834104046FEF703F802D293
:1028C00056F834802546641CBC42F3DB2846BDE83C
:1028D000F081000004490A885206FCD5024AC1B2C0
:1028E000121D118070470000003801400620401E74
:1028F000C0B2FCD2704700001CB500F07FFD08A0FC
:10290000FFF7E6F800210120CDE900010B46402247
:1029100008A10B4801F060FE01F0AAFA00201CBDDE
:102920005468697320697320486F6D65576F726BC7
:102930000D0A000073746172745461736B000000BF
:10294000D93600087CB5214C0025294625806580B4
:10295000AE20FEF727FB0121AE20FEF723FB072068
:102960008DF80000014606236A46AE20FEF7E8FA1D
:102970009DF800104FF6FF70228800EA8131114463
:102980009DF8012000EA821211449DF8022001EB1B
:1029900092018AB222809DF80310638800EA813197
:1029A00019449DF8043000EA831008449DF805108E
:1029B00000EB910080B242F210716080884200D832
:1029C00065808A4200D825807CBD0000E0000020A0
:1029D00010B50C46FDF7F7FEFDF7A9FE002C03DA53
:1029E0004FF07E51FDF782FCBDE81040FDF70ABFB5
:1029F0002DE9F04714461D46074689460022134636
:102A000020462946FDF712FF03D100200146BDE80C
:102A1000F08722462B4638464946FDF702FEFFF76F
:102A2000D7FF22462B46FDF78AFD3A464B46FDF777
:102A300083FD064688460022134638464946FDF780
:102A4000F5FE01D2012700E00027002213462046B0
:102A50002946FDF7EBFE01D2012000E0002087426D
:102A600007D022462B4630464146FDF762FD06461A
:102A7000884630464146CAE770B5002444F0B000AD
:102A800000F0B8F8002000F0B5F8102000F0B2F81F
:102A90000025002000F0C5F86D1CEDB2802DF8D3A4
:102AA000641CE4B2042CE9D370BD00002DE9F05F92
:102AB0000746891C0025C8B21021DFF858809246CD
:102AC0002E4641EA101900F00F0B00BF47F0B0008E
:102AD00000F090F8484600F08DF8584600F08AF86B
:102AE0005FF0000405EB0A1101EB0800A0F580502F
:102AF00090F8000E00F095F86D1C641CE4B2EDB285
:102B0000082CEFD37F1C761CF6B2FFB2022EDDD369
:102B1000BDE8F09F704E000870B50D4606460024D3
:102B200007E0E006010E30466D1CFFF7BFFF641C96
:102B3000E4B22A78002AF4D170BD10B5C820FFF79E
:102B40006BFEA82000F056F81F2000F053F8DA20A2
:102B500000F050F8022000F04DF8D32000F04AF8C1
:102B6000002000F047F8402000F044F8A12000F0D9
:102B700041F8812000F03EF8FF2000F03BF8A4204F
:102B800000F038F8A62000F035F8D52000F032F833
:102B9000F02000F02FF88D2000F02CF8142000F029
:102BA00029F8AE2000F026F8202000F023F80220BB
:102BB00000F020F8B02000F01DF8C82000F01AF84E
:102BC000002000F017F8102000F014F8402000F06A
:102BD00011F8D92000F00EF8222000F00BF8DB20CD
:102BE00000F008F8202000F005F8BDE81040AF2004
:102BF000AFF3008010B50446FEF77CFA7820FEF7AC
:102C00002DFAFEF7DFFA0020FEF728FAFEF7DAFACF
:102C10002046FEF723FAFEF7D5FABDE81040FEF78E
:102C200087BA10B50446FEF765FA7820FEF716FA63
:102C3000FEF7C8FA4020FEF711FAFEF7C3FA204665
:102C4000FEF70CFAFEF7BEFABDE81040FEF770BAC8
:102C500010B58D20FFF7CEFF2420FFF7CBFFBDE896
:102C60001040AE20FFF7C6BF10B58D20FFF7C2FFA2
:102C70002420FFF7BFFFBDE81040AF20FFF7BABF29
:102C80002DE9F0411E4C0F460546E6682068001D00
:102C900000F0A6FD38B9206890F82C10012088407B
:102CA000216981432161681C15D1A7B115492268AA
:102CB0004868906023688268DA6022688368121D21
:102CC0005A602268121D8260206841610868401CB9
:102CD0000860BDE8F08120683544B5424560216850
:102CE00005D2E06BBDE8F041091D00F0A7BDA06B67
:102CF000091D00F0A3FDA06A8542EAD2A562E8E7BB
:102D000054000020C00800202DE9F041054600F0E5
:102D1000B9FD354CA068401CA0602068334F10B14D
:102D2000606930B32BE02560A068012827D1002618
:102D300006EB860007EB800000F072FD761C202E6B
:102D4000F6D32B4800F06CFD2948143000F068FDE4
:102D50002748283000F064FD25483C3000F060FD35
:102D60002348503000F05CFD2148A0631430E0633C
:102D700005E02068E96AC06A884200D82560606A78
:102D8000401C60626864E96A01202269884010433F
:102D9000206101EB810007EB80004068A86081683A
:102DA000E9608268291D51608160E86A00EB80005B
:102DB00007EB8001696157F82010491C47F8201083
:102DC00000F09CFD606900280CD02068E96AC06AA8
:102DD000884207D207494FF080500860BFF34F8FF9
:102DE000BFF36F8FBDE8F08154000020F005002094
:102DF0007008002004ED00E010B500F043FD0E4C1B
:102E00002068A0B90D4800F00BFD0C48143000F00C
:102E100007FD0A48E06014302061002210210520DF
:102E200001F03AFA206010B105A100F0FBFDBDE809
:102E3000104000F063BD000094000020D408002082
:102E4000546D72510000000030B4026C0B46002A31
:102E50000BD0C1681144C1608468A14201D30168EC
:102E6000C16030BC1846FDF7CBB930BC70472DE9C6
:102E7000F041856B174604460026026C82B1C7B14B
:102E8000E068FDF7BDF9E168206C091AE16022688D
:102E9000914202D2A168081AE060022F16D017E012
:102EA0002068A8B9A06801F083FC06460020A06055
:102EB0000EE06068FDF7A4F9216C6068084460606A
:102EC000A168884204D32068606001E005B16D1EEE
:102ED0006D1CA5633046BDE8F08110B50446006B5B
:102EE00000F03EFD2046BDE8104000F039BD000076
:102EF00010484FF40051420706D0C01D0D4920F084
:102F00000700411AC1F500510B4A00230144C2E9F0
:102F100000030839183A21F0070111604B600B607B
:102F20000B1AC0E9001393604FF0004053605061EA
:102F300070470000FC080020CC000020144E154C07
:102F4000A6F52F774FF08058DFF84C9012E000BFC5
:102F500000F098FCF068C568281D00F041FCA068EE
:102F6000401EA0606068401E606000F0C7FC2846FC
:102F7000FFF7B3FF60680028EAD138680128F9D963
:102F8000C9F80080BFF34F8FBFF36F8FF2E70000E7
:102F9000AC0800205400002004ED00E02DE9F05FB3
:102FA000DDE90B940F461546834691009A460A9E2A
:102FB000A522206BFDF736F96FF00301206B01EBC2
:102FC0008501084420F007085FEA487005D040F208
:102FD0005F321EA122A0FEF77BFD002567B1002015
:102FE0002218395C82F83410395C11B1401C102869
:102FF000F6D384F8435001E084F83450202E06D3F1
:1030000040F2963211A116A0FEF762FD1F26E6627D
:10301000C4E91365201D00F00EFC04F1180000F057
:103020000AFC2461C6F120006462A061656584F831
:10303000585052465946404600F026FB2060B9F1F0
:10304000000F01D0C9F80040BDE8F09F2E2E5C466D
:1030500072656552746F735C7461736B732E630079
:103060004572726F723A25732C25640D0A000000B8
:1030700030B5114900E011460A688242FBD34B6823
:103080005C18844203D1406818444860084643688D
:103090001C18944209D1084C183C2468A24209D05B
:1030A00052681A4442600A6812680260814200D085
:1030B000086030BD0460F9E7CC00002070B5002442
:1030C00041600B4D0061914206D8D11A826991424C
:1030D00006D2011D286907E09A4203D2994201D322
:1030E000012403E0011DE86800F0A8FB204670BD44
:1030F0009400002010B5044600F0C4FBA06B28B17A
:103100005FF0000400F0FAFB204610BD0124F9E74F
:10311000F1B500980026846C2CB940F6D43219A180
:103120001DA0FEF7D5FCA06BE16B884205D340F6ED
:10313000D53214A118A0FEF7CBFCA06BE16B88423E
:103140001ED294F94550002269462046FFF78FFEB3
:103150000646681C02D07F2D09D00EE0606A78B167
:1031600004F1240001F08EFB50B1012608E040F686
:10317000F53204A108A0FEF7ABFC6D1C84F84550A5
:103180003046F8BD2E2E5C4672656552746F735CD6
:1031900071756575652E63004572726F723A25739D
:1031A0002C25640D0A00000070B506460D480D463A
:1031B000C068C068C468201D00F012FB94F82800A5
:1031C000410705D52A463146204600F0D1F803E0F4
:1031D00020F0010084F828002046216ABDE87040F4
:1031E000084700009400002070B586B03A4E69E0B0
:1031F0000098002806DADDE90201019A904700985C
:1032000000285FDB029C606910B1201D00F0E8FA25
:1032100004A800F0CFF8054600980A2852D2DFE84B
:1032200000F0510505282E450505282E94F82800A4
:103230002A4640F0010084F828000198A16903465D
:1032400001442046FFF73AFF78B394F8280041077D
:1032500007D50198A1692A460144204600F088F864
:1032600003E020F0010084F82800216A2046884706
:1032700028E014F8280F20F00100207022E094F8D4
:10328000280040F0010084F828000198A06128B9C6
:103290004FF4567211A117A0FEF71AFCA0692B4635
:1032A00041191A462046FFF709FF0BE094F8280061
:1032B000810703D4204600F053FB03E020F0010017
:1032C00084F8280000226946306801F091F800284F
:1032D0008ED106B070BD0000940000202E2E5C46FA
:1032E00072656552746F735C74696D6572732E6379
:1032F000000000004572726F723A25732C25640D30
:103300000A000000F8B50D46064600F0F9FD6846D3
:1033100000F050F80446009810B101F031FBF8BD00
:103320001148ADB101690968D9B10025311B2A46A0
:10333000006800F0B1FB01F023FB0028EFD10B493E
:103340004FF080500860BFF34F8FBFF36F8FF8BD11
:10335000A642EBD801F014FB21463046FFF724FFCC
:10336000F8BD0125E2E700009400002004ED00E034
:1033700070B516460C46054604E0A869296A04445F
:1033800028468847A8692346011932462846FFF790
:1033900095FE0028F1D170BD0548816B096821B107
:1033A000816BC9680968816270474FF0FF31FAE7A5
:1033B000540000202DE9F041064601F047F90E4C7B
:1033C0000546A068854214D24FF0FF3704E0C0687C
:1033D00039460068FFF7E8FEE06801680029F6D189
:1033E0002169C4E90310012030602846A560BDE8CA
:1033F000F0810020F8E700009400002010B500F0F4
:10340000C5FD1249C860202100F0CEFD4FF4407088
:10341000FDF7DCFFFFF7DCF94FF4E13000F090F945
:10342000FDF7A0FEFEF716F9FFF712FCFFF785FB8C
:10343000FFF722FBFFF718FCFDF7B4FBFDF75CFF7D
:10344000FDF76CFFBDE81040FDF71CBF0000002039
:1034500008484068401C04D0CE2207A111A0FEF706
:1034600037FB502080F31188BFF34F8FBFF36F8F6E
:10347000FEE70000A80000202E2E5C467265655213
:10348000746F735C706F727461626C655C525644E9
:10349000535C41524D5F434D335C706F72742E63C9
:1034A000000000004572726F723A25732C25640D7E
:1034B0000A0000000346002012B1994302D0704771
:1034C0000B42FCD001207047074CE068016841B115
:1034D000C0680021D0F80000FFF714FFFFF784FE5A
:1034E000F3E701210020F7E7940000202DE9F041E7
:1034F000044600F0C7F994F9455004F124060FE0A2
:10350000A06C18B12046FFF703FE04E0606A48B1E2
:10351000304601F0B7F908B100F084FB6D1E6DB2C2
:10352000002DEDDC4FF0FF3684F8456000F0E6F941
:1035300000F0A8F994F9445004F1100709E020695B
:1035400048B1384601F09EF908B100F06BFB6D1EE2
:103550006DB2002DF3DC84F84460BDE8F04100F06A
:10356000CDB900002DE9F0410546002600F0C8FC69
:10357000364F386808B9FFF7BBFC7869054258D167
:10358000002D56D005F10804AC4252D960070ED088
:1035900004F00700C0F108002044A04249D90446C5
:1035A000400704D09C222AA133A0FEF791FA002CF8
:1035B0003FD0786884423CD82448183001460D68D2
:1035C00001E028460D466968A14202D22968002917
:1035D000F7D13968B8468D422BD00668296801605A
:1035E00068680836001B10280ED92F19780704D0F8
:1035F000CF2217A120A0FEF76BFA6868001B786045
:1036000038466C60FFF734FD6A68D8F8041040460D
:10361000891AC8F80410D8F80830994200D281609D
:1036200041690A430021C5E90012C168491CC8F874
:103630000C1001F0A5F9700705D04FF4887204A1B1
:103640000DA0FEF745FA3046BDE8F081B400002039
:103650002E2E5C4672656552746F735C706F727467
:1036600061626C655C4D656D4D616E675C6865613E
:10367000705F342E630000004572726F723A2573DA
:103680002C25640D0A00000010B5031F4FF0807454
:103690001C601B1F21F001011960191F024B0B60F8
:1036A000143940380A6010BD5134000870B5054621
:1036B000FDF7C1F9044620F00040C0F1FF40C00F03
:1036C00008D025F00040C0F1FF40C00F04BF01202A
:1036D000FEF732FA204670BD7CB500F0D3F8012425
:1036E0000D482502CDE9004000232A460BA10F48D2
:1036F00000F072FF08480023001DCDE900402A4673
:103700000BA10E4800F068FF002000F01DFABDE894
:103710007C4000F0F3B80000040000204D41583315
:10372000303130325461736B000000000D1200081C
:103730004F4C45445461736B00000000E1130008D6
:1037400070B5054686B0012144F20400FDF7DAFEAB
:103750004FF40070ADF8100003248DF812401820CB
:103760001D4E8DF8130004A93046FDF78BFB301574
:10377000ADF8100004208DF8130004A93046FDF7C1
:1037800081FB25208DF814008DF815408DF816402A
:1037900001208DF8170005A8FDF7E6FD0020ADF823
:1037A0000400ADF80600ADF80800ADF80C000C20E0
:1037B0000A4CADF80A00009569462046FEF746F827
:1037C000012240F225512046FEF727F8012120462C
:1037D000FDF7FAFF06B070BD000801400038014057
:1037E000D0E9013201699A60D0E901235A604A6840
:1037F000824201D182684A60002202610868401E4C
:103800000860086870470000044908680A68806911
:10381000D26A0968C2F120028A6170475400002010
:1038200000F108014FF0FF32C0E90112C1600161EF
:1038300000210160704700210161704730B50B68BD
:103840005A1C02D000F1080202E0026904E022469C
:10385000546825689D42FAD953684B6099608A6024
:10386000516008610168491C016030BD42684A60CE
:1038700093688B6093685960916008610168491C86
:1038800001607047502080F31188BFF34F8FBFF362
:103890006F8F09494868401C486001280AD10748D1
:1038A000006810F0FF0F05D040F2731204A10FA0C2
:1038B000FEF70EB970470000A800002004ED00E0FC
:1038C0002E2E5C4672656552746F735C706F7274F5
:1038D00061626C655C525644535C41524D5F434D8E
:1038E000335C706F72742E63000000004572726F5B
:1038F000723A25732C25640D0A00000010B5084C9F
:10390000606828B94FF4BD7206A111A0FEF7E0F877
:103910006068401E606001D180F3118810BD000016
:10392000A80000202E2E5C4672656552746F735C91
:10393000706F727461626C655C525644535C4152A4
:103940004D5F434D335C706F72742E630000000056
:103950004572726F723A25732C25640D0A000000BF
:1039600070B500282DD0174DA0F108046068696972
:10397000084205D14FF4927213A11DA0FEF7A8F8DA
:10398000206828B140F225120FA119A0FEF7A0F877
:1039900061686869014214D02268002A11D181430C
:1039A000616000F0ADFA60686968084468602046AC
:1039B000FFF75EFB2869401C2861BDE8704000F0FD
:1039C000DFBF70BDB40000202E2E5C4672656552CC
:1039D000746F735C706F727461626C655C4D656D61
:1039E0004D616E675C686561705F342E6300000036
:1039F0004572726F723A25732C25640D0A0000001F
:103A00004FF0E02000210161816105494FF47A7295
:103A10000968B1FBF2F1491E41610721016170475C
:103A20002000002070B50E4605004FF0000405D1BF
:103A300040F6C8220EA113A0FEF74AF8002E15D0BA
:103A40001448002200EBC2014B68AB4202D100EBEC
:103A5000C20407E01CB950F8323003B90C46521CBE
:103A6000082AEFD3002C01D0C4E9006570BD000026
:103A70002E2E5C4672656552746F735C7175657548
:103A8000652E63004572726F723A25732C25640DA2
:103A90000A000000B005002070B515460E46044629
:103AA000FFF7F0FE94F944100020491C01D184F87E
:103AB000440094F94510491C01D184F84500FFF7F2
:103AC0001DFFA06B28B92A46314604F1240000F0FE
:103AD000D9F82046BDE87040FFF708BD10B50400D6
:103AE00012D00E48406B28B14FF4A8620CA111A06F
:103AF000FDF7EEFF00F004FA00212046FFF7C0F8C2
:103B000000F03EFF002807D10E494FF080500860BA
:103B1000BFF34F8FBFF36F8F10BD00005400002024
:103B20002E2E5C4672656552746F735C7461736BA4
:103B3000732E63004572726F723A25732C25640DE3
:103B40000A00000004ED00E070B50546FFF79AFE9C
:103B5000234C05B92568281DFFF742FE58B9E86ACD
:103B6000204A00EB800152F8211021B90121814047
:103B7000206988432061A86A18B105F11800FFF791
:103B80002FFE606A401C60622068854207D1291DB3
:103B90001548FFF76BFE6068401C606007E0A06896
:103BA000401EA0602846FFF798F9FFF7F5FBFFF7E6
:103BB000A5FE6069002812D0206885420FD1606B95
:103BC00028B140F2D34209A10DA0FDF781FF1049B1
:103BD0004FF080500860BFF34F8FBFF36F8F70BD01
:103BE00054000020F0050020AC0800202E2E5C467A
:103BF00072656552746F735C7461736B732E6300CE
:103C00004572726F723A25732C25640D0A0000000C
:103C100004ED00E002490A6A0260C9684160704729
:103C20005400002001490120C86170475400002061
:103C300070B50D46040005D140F6134207A10CA053
:103C4000FDF746FF0E48016820461831FFF7F6FDE4
:103C50002846BDE870400121FFF712B82E2E5C46C1
:103C600072656552746F735C7461736B732E63005D
:103C70004572726F723A25732C25640D0A0000009C
:103C80005400002070B515460E46040005D140F6DC
:103C9000494210A114A0FDF71BFF17486168026894
:103CA000D1618A6803681A6202688B6818325A60A8
:103CB000026818328A60006884622068401C2060B4
:103CC0000DB14FF0FF3629463046BDE87040FEF793
:103CD000D7BF00002E2E5C4672656552746F735C10
:103CE0007461736B732E63004572726F723A257341
:103CF0002C25640D0A000000540000202DE9F0413D
:103D000016460F46050005D140F62D4214A119A014
:103D1000FDF7DEFE1B4C606B28B940F6314210A166
:103D200014A0FDF7D5FE216847F00040886168685F
:103D30002168C8618168226811622168826818312F
:103D40005160216818318160206885622868401CB4
:103D500028603046BDE8F0410121FEF791BF000028
:103D60002E2E5C4672656552746F735C7461736B62
:103D7000732E63004572726F723A25732C25640DA1
:103D80000A0000005400002070B52E4E05460C4677
:103D9000706B28B940F6B1422BA130A0FDF798FE18
:103DA00044F000402860EC682CB940F6B94226A1E6
:103DB0002AA0FDF78DFED5E9012128699160D5E99A
:103DC000011251604168A94201D1A96841600022F5
:103DD0002A610168491E0160D4E902306169986076
:103DE000D4E9020358604B68201D834201D1E36887
:103DF0004B6062610A68521E0A60E36A01223569FB
:103E000002FA03F12943316103EB8301174B03EB02
:103E100081014968A1608D68E5608D68686088608F
:103E2000E06A00EB800003EB8001616153F8201031
:103E3000491C43F82010E06A3168C96A884200D9F9
:103E4000F26170BD540000202E2E5C4672656552F2
:103E5000746F735C7461736B732E63004572726F61
:103E6000723A25732C25640D0A000000F00500202D
:103E70007CB516480025CDE900502B46822214A1BE
:103E8000154800F0A9FB114C2C3C012803D100F08F
:103E90001FFE012802D0401C10D015E0502080F3F6
:103EA0001188BFF34F8FBFF36F8F4FF0FF30A062C9
:103EB00001206061E56000F061F905E040F637023D
:103EC00006A10BA0FDF704FE206B7CBD8000002046
:103ED00049444C45000000003D2F00082E2E5C4652
:103EE00072656552746F735C7461736B732E6300DB
:103EF0004572726F723A25732C25640D0A0000001A
:103F00000248416B491C4163704700005400002087
:103F100070B5134C606B10B10120E06170BD0020E2
:103F2000E06120690F4EB0FA80F0C0F11F0000EB95
:103F3000800556F8250028B940F6F9320AA10FA0ED
:103F4000FDF7C6FD06EB850000F1080241684968EF
:103F50004160914201D149684160C868206070BDEC
:103F600054000020F00500202E2E5C46726565523C
:103F7000746F735C7461736B732E63004572726F40
:103F8000723A25732C25640D0A00000010B51C2020
:103F9000FFF7E8FA040004D000202060201DFFF79E
:103FA0003FFC204610BD00002DE9F0410027884667
:103FB000040005D140F221221CA123A0FDF788FDB9
:103FC0005FEA186005D040F2222218A11EA0FDF77A
:103FD0007FFD261D04F10C05FFF792FF2168F068B4
:103FE00041EA0801216017E0D0E9001601F07F42A4
:103FF0005301236821F07F4102D40B4203D10AE030
:1040000031EA030307D1D20100D50F43216841F003
:104010000071FFF7B9FE3046A842E5D12068B843E9
:10402000206000F0ADFC2068BDE8F0812E2E5C46DB
:1040300072656552746F735C6576656E745F6772E6
:104040006F7570732E6300004572726F723A25733C
:104050002C25640D0A0000002DE9F047DDF82090C2
:104060009A4690460D4604004FF0000705D14FF4E4
:10407000A57236A13CA0FDF72BFD280E05D040F21D
:104080004B1232A138A0FDF723FD2DB94FF4A672D3
:104090002EA135A0FDF71CFD00F0CAFA40B9B9F118
:1040A000000F05D040F24F1228A12FA0FDF710FD00
:1040B000FFF726FF2668524629463046FFF7FAF9F1
:1040C00030B1B8F1000F1AD02068A843206016E084
:1040D000B9F1000F13D0B8F1000F01D04FF0807785
:1040E000BAF1000F01D047F0806745EA07014A4660
:1040F000201DFFF703FE00F043FC18B10AE000F0BA
:104100003FFC1FE01C494FF080500860BFF34F8F09
:10411000BFF36F8FFFF778FB0646800110D4FFF7DF
:10412000B1FB2668524629463046FFF7C3F928B14D
:10413000B8F1000F02D02068A8432060FFF7DEFB33
:1041400026F07F463046BDE8F08700002E2E5C4604
:1041500072656552746F735C6576656E745F6772C5
:104160006F7570732E6300004572726F723A25731B
:104170002C25640D0A00000004ED00E07CB5294DFB
:1041800028780190FF20287028788DF800009DF88D
:1041900000009DF8001000F0F000884205D040F2C9
:1041A0001F1221A12BA0FDF793FC9DF800002D4CC0
:1041B00000F0500020700720A06005E09DF800107E
:1041C00049008DF80010401E9DF800100906F5D436
:1041D000A06003280ED040F2331213A11DA0FDF7FA
:1041E00077FCA068032805D04FF49E720EA119A099
:1041F000FDF76EFC207A000200F4E060A0600198F8
:1042000028701948016841F470010160016841F0AB
:1042100070410160FFF7F4FB00206060FBF7A4FF32
:1042200000207CBD00E400E02E2E5C4672656552E5
:10423000746F735C706F727461626C655C5256442B
:10424000535C41524D5F434D335C706F72742E630B
:10425000000000004572726F723A25732C25640DC0
:104260000A000000A800002020ED00E010B550205A
:1042700080F31188BFF34F8FBFF36F8F00F0ECF91D
:1042800018B104494FF080500860002080F3118875
:1042900010BD000004ED00E02DE9F04117460E4688
:1042A00005004FF000041FD0601EB0FBF5F0B042D7
:1042B0001AD305FB06F010F1550F15D85430FFF74F
:1042C00051F9040016D004F154005EB12060C4E935
:1042D0000F562046012100F023F884F85070002189
:1042E000A16407E02460F2E740F2C51203A108A030
:1042F000FDF7EEFB2046BDE8F08100002E2E5C4667
:1043000072656552746F735C71756575652E6300B7
:104310004572726F723A25732C25640D0A000000F5
:104320002DE9F0410F4604004FF001062BD0E06B61
:1043300078B3B51EB5FBF0F1206C814229D3FFF7AD
:10434000A1FAD4E90F20216802FB0011A16000212D
:10435000A163216861600A46D4E90F01401E00FB99
:1043600001212046E16000F8445F457004F110002F
:10437000CFB1FFF755FA04F12400FFF751FA00BF5F
:10438000FFF7BCFA0CE04FF488720FA113A0FDF701
:104390009FFB00264FF4A2720BA110A0FDF798FB23
:1043A0003046BDE8F08121690029E9D000F06AFAC1
:1043B0000028E5D00D494FF080500860BFF34F8FC3
:1043C000BFF36F8FDCE700002E2E5C4672656552EE
:1043D000746F735C71756575652E63004572726FDD
:1043E000723A25732C25640D0A00000004ED00E0EC
:1043F0002DE9F747002683B08A46040005D14FF423
:10440000AA6245A149A0FDF763FBBAF1000F07D1ED
:10441000206C28B140F254523FA144A0FDF758FB54
:1044200000F006F938B9059828B140F259523AA17E
:104430003EA0FDF74DFBDFF804814FF000094FF07F
:10444000805700BFFFF71EFAA56BC5B15146204645
:10445000FEF7FAFC6D1EA563206950B104F110004F
:1044600000F010FA28B1C8F80070BFF34F8FBFF307
:104470006F8FFFF743FA012006B0BDE8F08705987B
:1044800008B11EB106E0FFF739FA27E06846FFF7EA
:10449000C1FB0126FFF732FAFFF732FDFFF7F2F911
:1044A00094F94400401C01D184F8449094F94500EB
:1044B000401C01D184F84590FFF720FA05A9684611
:1044C00000F03EF8002820460AD0FFF70FF800F071
:1044D00057FA2046FEF70EFE0028B3D00020CBE7A7
:1044E000FEF708FE90B104F124000599FFF7A0FB48
:1044F0002046FEF7FBFF00F043FA0028A2D1C8F8DF
:104500000070BFF34F8FBFF36F8F9BE72046FEF71E
:10451000EDFF00F035FA95E72E2E5C467265655288
:10452000746F735C71756575652E63004572726F8B
:10453000723A25732C25640D0A00000004ED00E09A
:104540002DE9F0410C46050005D140F6F44218A1D2
:104550001CA0FDF7BDFA2CB940F6F54214A119A034
:10456000FDF7B6FAFFF78EF91A4EF2686B6820680D
:10457000D11A471C0AD02F68D6F820C000266745FC
:1045800006D0934204D8012526600BE0002509E0FF
:10459000884205D9401A20602846FFF73BFBF5E723
:1045A00001252660FFF7AAF92846BDE8F081000042
:1045B0002E2E5C4672656552746F735C7461736B0A
:1045C000732E63004572726F723A25732C25640D49
:1045D0000A000000540000202DE9FF5F8346DDE95A
:1045E0000E87994616468A469000FEF7BBFF0500E7
:1045F0001AD05C20FEF7B6FF040012D0256300211C
:10460000CDE90241CDE900874B4632465146584636
:10461000FEF7C4FC2046FEF777FB012004B0BDE89E
:10462000F09F2846FFF79CF94FF0FF30F6E70000B7
:104630000548416919B1406B18B10020704701204D
:104640007047022070470000540000200148C068F5
:1046500070470000540000202DE9F041494C00262D
:10466000606B28B1A069401CA0613046BDE8F081B4
:10467000E5686D1CE56011D1A06B006828B140F6BB
:10468000BE2241A145A0FDF723FAA06BE16BA16317
:10469000E063206A401C2062FEF77EFEA16A434868
:1046A0008D420FD34FF0000EA16B096839B1A16B99
:1046B000C968C9684A68954212D2A26202E04FF006
:1046C000FF31A1622168C96A01EB810150F8210024
:1046D000012800D90126E0690028C6D00126C4E7D8
:1046E000D1E902724B69BA60D1E902277A605F684A
:1046F0000A1D974201D1CF685F60C1F814E01F68BE
:104700007F1E1F60D1F828C0BCF1000F15D0D1E981
:1047100007379F60D1E907377B60DCF8047001F14F
:1047200018039F4202D10B6ACCF80430C1F828E08C
:10473000DCF800305B1ECCF80030CB6A0127D4F8DF
:1047400010C09F4047EA0C07276103EB830300EB8F
:1047500083035B688B609F68CF609F687A609A6014
:10476000CA6A02EB820200EB82034B6150F82230EE
:104770005B1C40F82230C96A2268D26A914293D306
:10478000012691E7540000202E2E5C46726565528A
:10479000746F735C7461736B732E63004572726F18
:1047A000723A25732C25640D0A000000F0050020E4
:1047B00070B504004FF000064BD0274D28688442A6
:1047C00005D041F2460225A129A0FDF781F9206D0F
:1047D00028B941F2470221A125A0FDF779F9206D02
:1047E000401E2065E26CE16A914232D088BB201DF8
:1047F000FEF7F6FF012130B994F82C002A6901FA7E
:1048000000F082432A61E06CE062C0F12000A06108
:10481000E06A2A69814011432961194900EB80004F
:1048200001EB80004068A0608268E2608368221D1E
:104830005A608260E06A00EB800001EB80006061FA
:10484000E06A00EB800051F82020521C41F8202043
:104850000126304670BD0000540000202E2E5C461C
:1048600072656552746F735C7461736B732E630051
:104870004572726F723A25732C25640D0A00000090
:10488000F005002070B5C068C4682CB940F67942C4
:104890002FA134A0FDF71CF9D4E90720A16A90608C
:1048A000D4E9070250604A6804F11800824201D13D
:1048B000226A4A600023A3620A68521E0A602D49D8
:1048C0004A6B01259AB12C4B5A68E26196682662C0
:1048D000966870609060A3621868401C1860E06A77
:1048E0000A68D26A904231D90120CD6170BDD4E905
:1048F00002626069B260D4E9022672604668221DD5
:10490000964201D1E6684660636103685B1E0360FE
:10491000E06A0E6905FA00F333430B61174B00EBB5
:10492000800003EB80004068A0608668E6608668CF
:1049300072608260E06A00EB800003EB80026261DB
:1049400053F82020521C43F82020C8E7002070BDF7
:104950002E2E5C4672656552746F735C7461736B66
:10496000732E63004572726F723A25732C25640DA5
:104970000A0000005400002098080020F0050020E4
:104980002DE9F041454D00242746686B28B940F6D3
:10499000AA0243A147A0FDF79BF8FEF773FF686BDF
:1049A000401E6863686B002872D1A868454B0026DA
:1049B0004FF00108F0BB6BE0D868C468D4E9072168
:1049C000A06A9160D4E907125160426804F11801AD
:1049D0008A4201D1216A4160A6620168491E0160D4
:1049E000D4E9022160699160D4E902125160426801
:1049F000211D8A4201D1E268426066610268521E4E
:104A00000260E26AD5F810C008FA02F040EA0C0031
:104A1000286102EB82002C4A02EB80004068A06013
:104A2000D0F808C0C4F80CC0D0F808C0CCF8041006
:104A3000816000E011E0E06A00EB800002EB8001A1
:104A4000616152F82010491C42F82010E06A296880
:104A5000C96A884201D3C5F81C8018680028ABD108
:104A60000CB1FEF799FCAC6944B100BFFFF7F4FD4F
:104A700008B1C5F81C80641EF8D1AE61E86938B190
:104A80001249012738070860BFF34F8FBFF36F8FBC
:104A9000FEF734FF3846BDE8F081000054000020E6
:104AA0002E2E5C4672656552746F735C7461736B15
:104AB000732E63004572726F723A25732C25640D54
:104AC0000A00000098080020F005002004ED00E036
:104AD0001CB50024FEF790F90C48006868B10B493A
:104AE0001F20091DCDE9000100234FF4827208A1A7
:104AF0000948FFF771FD040005D140F2191207A122
:104B00000CA0FCF7E5FF20461CBD0000940000202F
:104B1000546D722053766300C93400082E2E5C4613
:104B200072656552746F735C74696D6572732E6320
:104B3000000000004572726F723A25732C25640DD7
:104B40000A0000000000000000000000000000005B
:104B50006F0EA6389415903F6058F72D1215A03FA0
:104B6000AB047532561EA83F7993E01B0A13B03F81
:104B7000498E3932E515B43FF017FC7F7B17B83FFB
:104B8000DA97623D8C17BC3FE05BA15DEB0AC03F4A
:104B9000E9AA91330D09C23F7553A8670B06C43FBC
:104BA0006C2377D3C501C63F797A03651CFCC73FE8
:104BB000A3DDCC20EFF4C93F6A1FD2231EECCB3F0C
:104BC000CCFB94A589E1CD3F96071CFA11D5CF3FC8
:104BD0004769F9C94BE3D03F0E0E1483FDDAD13F8C
:104BE0001FFD24838ED1D23F4FE92F37EFC6D33F2D
:104BF000FB02711F10BBD43FDD9657D0E1ADD53F0E
:104C00004B667FF3549FD63F19A9A8485A8FD73FC8
:104C100063A9AEA6E27DD83FC2E97CFCDE6AD93F3B
:104C200063C602524056DA3F9D8125C9F73FDB3FFC
:104C3000C3ACB09EF627DC3F01DE442B2E0EDD3FD9
:104C40001FA444E48FF2DD3F52A9BF5C0DD5DE3FC7
:104C500024F65B4698B5DF3FE4A21E39114AE03FD7
:104C60009C2EF5E84EB8E03F512B183C7E25E13FE5
:104C70005CE9014D9891E13FEA00B04796FCE13FC5
:104C800057BB116A7166E23F5E5A750423CFE23F5B
:104C90004136F479A436E33F0BACDD40EF9CE33FB3
:104CA0002AD520E3FC01E43FBC01B5FEC665E43F24
:104CB000EFEE004647C8E43FECB240807729E53F7D
:104CC000F057EA895189E53F14201155CFE7E53FB8
:104CD000A66BC7E9EA44E63FCD3B7F669EA0E63F70
:104CE000664B6900E4FAE63F16B8D203B653E73FD5
:104CF000A53581D40EABE73FDCC50DEEE800E83FFB
:104D000014EF3DE43E55E83FEA6B5B630BA8E83FD8
:104D1000844E8A3049F9E83FF2911D2AF348E93F71
:104D20005714EA470497E93FA8F4979B77E3E93FD4
:104D3000C94EF250482EEA3F095135AE7177EA3F2D
:104D400017A65A14EFBEEA3F862E64FFBB04EB3F62
:104D50004005A506D448EB3F3CCA08DD328BEB3F4B
:104D6000F72E5951D4CBEB3F5AC0814EB40AEC3FD9
:104D7000A7E9D1DBCE47EC3F6C2C3D1D2083EC3FF7
:104D800045899953A4BCEC3F8C15DCDC57F4EC3F0F
:104D900031BA5334372AED3FED17E2F23E5EED3F74
:104DA000468D32CF6B90ED3FE55AEF9DBAC0ED3F97
:104DB000E3E2F45128EFED3FD8FF82FCB11BEE3F58
:104DC0007E706CCD5446EE3FFF5444130E6FEE3FA1
:104DD000F5BA893BDB95EE3F7235D1D2B9BAEE3FD9
:104DE000667EEC84A7DDEE3FE01E101DA2FEEE3FC6
:104DF000CF1BF785A71DEF3FF8A404CAB53AEF3FD4
:104E000014C46313CB55EF3FFF0925ACE56EEF3FAC
:104E100021385AFE0386EF3F5CE42F94249BEF3F3A
:104E2000D015051846AEEF3F03D9805467BFEF3F5A
:104E300003CAA53487CEEF3F5C93E3C3A4DBEF3F07
:104E4000AF60262EBFE6EF3FFE43E4BFD5EFEF3F56
:104E5000D38C28E6E7F6EF3F86109D2EF5FBEF3F5B
:104E600012639147FDFEEF3F000000000000F03F9D
:104E70000000000000000000000000000000000032
:104E8000000038FCFC3800000000000D0D000000A0
:104E9000000E1E00001E0E000000000000000000BA
:104EA00020F8F820F8F82000020F0F020F0F020080
:104EB000387C444747CC98000306041C1C070300B9
:104EC00030300080C06030000C060301000C0C0084
:104ED00080D87CE4BCD84000070F0808070F080002
:104EE00000101E0E00000000000000000000000086
:104EF0000000F0F80C040000000003070C0800009C
:104F00000000040CF8F000000000080C070300008B
:104F100080A0E0C0C0E0A080000203010103020005
:104F2000008080E0E08080000000000303000000BB
:104F300000000000000000000000101E0E00000035
:104F400080808080808080000000000000000000E1
:104F500000000000000000000000000C0C00000039
:104F600000000080C06030000C060301000000005B
:104F7000F8FC04C424FCF800070F0908080F070018
:104F8000001018FCFC0000000008080F0F080800C3
:104F9000080C84C4643C18000E0F0908080C0C00AF
:104FA000080C444444FCB800040C0808080F07002F
:104FB000C0E0B098FCFC8000000000080F0F080063
:104FC0007C7C4444C4C48400040C0808080F070017
:104FD000F0F84C4444C08000070F0808080F070091
:104FE0000C0C0484C47C3C0000000F0F0000000087
:104FF000B8FC444444FCB800070F0808080F070039
:10500000387C444444FCF800000808080C070300FE
:105010000000003030000000000000060600000024
:1050200000000030300000000000080E0600000004
:105030000080C0603018080000000103060C080062
:105040004040404040404000020202020202020092
:105050000008183060C0800000080C060301000042
:10506000181C04C4E43C18000000000D0D000000F2
:10507000F0F808C8C8F8F000070F080B0B0B010088
:10508000E0F0988C98F0E0000F0F0000000F0F0088
:1050900004FCFC4444FCB800080F0F08080F07008C
:1050A000F0F80C04040C180003070C08080C0600A8
:1050B00004FCFC040CF8F000080F0F080C070300B8
:1050C00004FCFC44E40C1C00080F0F08080C0E0044
:1050D00004FCFC44E40C1C00080F0F080000000056
:1050E000F0F80C84848C980003070C0808070F0064
:1050F000FCFC404040FCFC000F0F0000000F0F00C4
:10510000000004FCFC0400000000080F0F08000071
:1051100000000004FCFC0400070F08080F07000053
:1051200004FCFCC0F03C0C00080F0F00010F0E0047
:1051300004FCFC0400000000080F0F08080C0E001F
:10514000FCFC387038FCFC000F0F0000000F0F0053
:10515000FCFC3870E0FCFC000F0F0000000F0F009B
:10516000F0F80C040CF8F00003070C080C0703001F
:1051700004FCFC44447C3800080F0F0800000000C9
:10518000F8FC040404FCF800070F080E3C3F27005D
:1051900004FCFC44C4FC3800080F0F00000F0F0093
:1051A000183C6444C49C1800060E0808080F070049
:1051B000001C0CFCFC0C1C000000080F0F08000079
:1051C000FCFC000000FCFC00070F0808080F0700AB
:1051D000FCFC000000FCFC000103060C06030100BF
:1051E000FCFC008000FCFC00030F0E030E0F03000C
:1051F0000C3CF0C0F03C0C000C0F0300030F0C0043
:10520000003C7CC0C07C3C000000080F0F08000080
:105210001C0C84C4643C1C000E0F0908080C0E0012
:105220000000FCFC0404000000000F0F0808000050
:105230003870E0C0800000000000000103070E008D
:1052400000000404FCFC0000000008080F0F000030
:10525000080C0603060C0800000000000000000017
:10526000000000000000000020202020202020203E
:105270000000030704000000000000000000000020
:1052800000A0A0A0E0C00000070F0808070F08005A
:1052900004FCFC2060C08000080F0708080F07000E
:1052A000C0E0202020604000070F0808080C040020
:1052B00080C06024FCFC0000070F0808070F0800EE
:1052C000C0E0A0A0A0E0C000070F0808080C040080
:1052D00040F8FC440C180000080F0F080000000004
:1052E000C0E02020C0E02000276F48487F3F00003A
:1052F00004FCFC4020E0C000080F0F00000F0F006E
:10530000000020ECEC0000000000080F0F08000077
:105310000000000020ECEC0000307040407F3F00B7
:1053200004FCFC80C0602000080F0F01030E0C007D
:10533000000004FCFC0000000000080F0F08000043
:10534000E0E060C060E0C0000F0F000F000F0F0032
:1053500020E0C02020E0C000000F0F00000F0F0071
:10536000C0E0202020E0C000070F0808080F070059
:1053700020E0C02020E0C000407F7F48080F0700E9
:10538000C0E02020C0E02000070F08487F7F4000D9
:1053900020E0C0602060C000080F0F08000000007F
:1053A00040E0A02020604000040C09090B0E04001E
:1053B0002020F8FC202000000000070F080C04004B
:1053C000E0E00000E0E00000070F0808070F080019
:1053D00000E0E00000E0E0000003070C0C07030021
:1053E000E0E0000000E0E000070F0C070C0F0700F2
:1053F0002060C080C0602000080C0703070C080074
:10540000E0E0000000E0E000474F4848683F1F0030
:10541000606020A0E06020000C0E0B09080C0C005E
:10542000004040F8BC040400000000070F0808001A
:10543000000000BCBC0000000000000F0F000000D6
:10544000000404BCF84040000008080F07000000FA
:10545000080C040C080C0400000000000000000010
:1054600080C0603060C080000707040404070700A4
:105470009054000800000020E8000000181B0008FD
:1054800078550008E8000020184D0000281B00088F
:10549000000000000000000000000000000000000C
:1054A000202020202020202020202020202020001C
:1054B00000A24A04000000000000000001020304F2
:1054C00006070809000000000000000000000000BE
:1054D00002040608000000000102030401020304A4
:1054E000060708090000000000000000000000009E
:1054F00000000000000000000000000000000000AC
:10550000000000000000000000000000000000009B
:10551000000000001F00000000000000000000006C
:10552000000000000000000000000000000000007B
:10553000000000000000000000000000AAAAAAAAC3
:10554000000000000000000000000000000000005B
:10555000000000000000000000000000000000004B
:10556000000000000000000000000000000000003B
:08557000000000000000000033
:04000005080001DD11
:00000001FF
